{
  "_format": "hh-sol-artifact-1",
  "contractName": "Domains",
  "sourceName": "contracts/Domains.sol",
  "abi": [
    {
      "inputs": [
        {
          "internalType": "string",
          "name": "_tld",
          "type": "string"
        }
      ],
      "stateMutability": "payable",
      "type": "constructor"
    },
    {
      "inputs": [],
      "name": "AlreadyRegistered",
      "type": "error"
    },
    {
      "inputs": [
        {
          "internalType": "string",
          "name": "name",
          "type": "string"
        }
      ],
      "name": "InvalidName",
      "type": "error"
    },
    {
      "inputs": [],
      "name": "Unauthorized",
      "type": "error"
    },
    {
      "anonymous": false,
      "inputs": [
        {
          "indexed": true,
          "internalType": "address",
          "name": "owner",
          "type": "address"
        },
        {
          "indexed": true,
          "internalType": "address",
          "name": "approved",
          "type": "address"
        },
        {
          "indexed": true,
          "internalType": "uint256",
          "name": "tokenId",
          "type": "uint256"
        }
      ],
      "name": "Approval",
      "type": "event"
    },
    {
      "anonymous": false,
      "inputs": [
        {
          "indexed": true,
          "internalType": "address",
          "name": "owner",
          "type": "address"
        },
        {
          "indexed": true,
          "internalType": "address",
          "name": "operator",
          "type": "address"
        },
        {
          "indexed": false,
          "internalType": "bool",
          "name": "approved",
          "type": "bool"
        }
      ],
      "name": "ApprovalForAll",
      "type": "event"
    },
    {
      "anonymous": false,
      "inputs": [
        {
          "indexed": true,
          "internalType": "address",
          "name": "from",
          "type": "address"
        },
        {
          "indexed": true,
          "internalType": "address",
          "name": "to",
          "type": "address"
        },
        {
          "indexed": true,
          "internalType": "uint256",
          "name": "tokenId",
          "type": "uint256"
        }
      ],
      "name": "Transfer",
      "type": "event"
    },
    {
      "inputs": [
        {
          "internalType": "address",
          "name": "to",
          "type": "address"
        },
        {
          "internalType": "uint256",
          "name": "tokenId",
          "type": "uint256"
        }
      ],
      "name": "approve",
      "outputs": [],
      "stateMutability": "nonpayable",
      "type": "function"
    },
    {
      "inputs": [
        {
          "internalType": "address",
          "name": "owner",
          "type": "address"
        }
      ],
      "name": "balanceOf",
      "outputs": [
        {
          "internalType": "uint256",
          "name": "",
          "type": "uint256"
        }
      ],
      "stateMutability": "view",
      "type": "function"
    },
    {
      "inputs": [
        {
          "internalType": "string",
          "name": "",
          "type": "string"
        }
      ],
      "name": "domains",
      "outputs": [
        {
          "internalType": "address",
          "name": "",
          "type": "address"
        }
      ],
      "stateMutability": "view",
      "type": "function"
    },
    {
      "inputs": [
        {
          "internalType": "string",
          "name": "name",
          "type": "string"
        }
      ],
      "name": "getAddress",
      "outputs": [
        {
          "internalType": "address",
          "name": "",
          "type": "address"
        }
      ],
      "stateMutability": "view",
      "type": "function"
    },
    {
      "inputs": [],
      "name": "getAllNames",
      "outputs": [
        {
          "internalType": "string[]",
          "name": "",
          "type": "string[]"
        }
      ],
      "stateMutability": "view",
      "type": "function"
    },
    {
      "inputs": [
        {
          "internalType": "uint256",
          "name": "tokenId",
          "type": "uint256"
        }
      ],
      "name": "getApproved",
      "outputs": [
        {
          "internalType": "address",
          "name": "",
          "type": "address"
        }
      ],
      "stateMutability": "view",
      "type": "function"
    },
    {
      "inputs": [
        {
          "internalType": "string",
          "name": "name",
          "type": "string"
        }
      ],
      "name": "getRecord",
      "outputs": [
        {
          "internalType": "string",
          "name": "",
          "type": "string"
        }
      ],
      "stateMutability": "view",
      "type": "function"
    },
    {
      "inputs": [
        {
          "internalType": "address",
          "name": "owner",
          "type": "address"
        },
        {
          "internalType": "address",
          "name": "operator",
          "type": "address"
        }
      ],
      "name": "isApprovedForAll",
      "outputs": [
        {
          "internalType": "bool",
          "name": "",
          "type": "bool"
        }
      ],
      "stateMutability": "view",
      "type": "function"
    },
    {
      "inputs": [],
      "name": "isOwner",
      "outputs": [
        {
          "internalType": "bool",
          "name": "",
          "type": "bool"
        }
      ],
      "stateMutability": "view",
      "type": "function"
    },
    {
      "inputs": [],
      "name": "name",
      "outputs": [
        {
          "internalType": "string",
          "name": "",
          "type": "string"
        }
      ],
      "stateMutability": "view",
      "type": "function"
    },
    {
      "inputs": [
        {
          "internalType": "uint256",
          "name": "",
          "type": "uint256"
        }
      ],
      "name": "names",
      "outputs": [
        {
          "internalType": "string",
          "name": "",
          "type": "string"
        }
      ],
      "stateMutability": "view",
      "type": "function"
    },
    {
      "inputs": [],
      "name": "owner",
      "outputs": [
        {
          "internalType": "address payable",
          "name": "",
          "type": "address"
        }
      ],
      "stateMutability": "view",
      "type": "function"
    },
    {
      "inputs": [
        {
          "internalType": "uint256",
          "name": "tokenId",
          "type": "uint256"
        }
      ],
      "name": "ownerOf",
      "outputs": [
        {
          "internalType": "address",
          "name": "",
          "type": "address"
        }
      ],
      "stateMutability": "view",
      "type": "function"
    },
    {
      "inputs": [
        {
          "internalType": "string",
          "name": "name",
          "type": "string"
        }
      ],
      "name": "price",
      "outputs": [
        {
          "internalType": "uint256",
          "name": "",
          "type": "uint256"
        }
      ],
      "stateMutability": "pure",
      "type": "function"
    },
    {
      "inputs": [
        {
          "internalType": "string",
          "name": "name",
          "type": "string"
        }
      ],
      "name": "register",
      "outputs": [],
      "stateMutability": "payable",
      "type": "function"
    },
    {
      "inputs": [
        {
          "internalType": "address",
          "name": "from",
          "type": "address"
        },
        {
          "internalType": "address",
          "name": "to",
          "type": "address"
        },
        {
          "internalType": "uint256",
          "name": "tokenId",
          "type": "uint256"
        }
      ],
      "name": "safeTransferFrom",
      "outputs": [],
      "stateMutability": "nonpayable",
      "type": "function"
    },
    {
      "inputs": [
        {
          "internalType": "address",
          "name": "from",
          "type": "address"
        },
        {
          "internalType": "address",
          "name": "to",
          "type": "address"
        },
        {
          "internalType": "uint256",
          "name": "tokenId",
          "type": "uint256"
        },
        {
          "internalType": "bytes",
          "name": "_data",
          "type": "bytes"
        }
      ],
      "name": "safeTransferFrom",
      "outputs": [],
      "stateMutability": "nonpayable",
      "type": "function"
    },
    {
      "inputs": [
        {
          "internalType": "address",
          "name": "operator",
          "type": "address"
        },
        {
          "internalType": "bool",
          "name": "approved",
          "type": "bool"
        }
      ],
      "name": "setApprovalForAll",
      "outputs": [],
      "stateMutability": "nonpayable",
      "type": "function"
    },
    {
      "inputs": [
        {
          "internalType": "string",
          "name": "name",
          "type": "string"
        },
        {
          "internalType": "string",
          "name": "record",
          "type": "string"
        }
      ],
      "name": "setRecord",
      "outputs": [],
      "stateMutability": "nonpayable",
      "type": "function"
    },
    {
      "inputs": [
        {
          "internalType": "bytes4",
          "name": "interfaceId",
          "type": "bytes4"
        }
      ],
      "name": "supportsInterface",
      "outputs": [
        {
          "internalType": "bool",
          "name": "",
          "type": "bool"
        }
      ],
      "stateMutability": "view",
      "type": "function"
    },
    {
      "inputs": [
        {
          "internalType": "string",
          "name": "",
          "type": "string"
        }
      ],
      "name": "svg",
      "outputs": [
        {
          "internalType": "string",
          "name": "",
          "type": "string"
        }
      ],
      "stateMutability": "view",
      "type": "function"
    },
    {
      "inputs": [],
      "name": "symbol",
      "outputs": [
        {
          "internalType": "string",
          "name": "",
          "type": "string"
        }
      ],
      "stateMutability": "view",
      "type": "function"
    },
    {
      "inputs": [],
      "name": "tld",
      "outputs": [
        {
          "internalType": "string",
          "name": "",
          "type": "string"
        }
      ],
      "stateMutability": "view",
      "type": "function"
    },
    {
      "inputs": [
        {
          "internalType": "uint256",
          "name": "tokenId",
          "type": "uint256"
        }
      ],
      "name": "tokenURI",
      "outputs": [
        {
          "internalType": "string",
          "name": "",
          "type": "string"
        }
      ],
      "stateMutability": "view",
      "type": "function"
    },
    {
      "inputs": [
        {
          "internalType": "address",
          "name": "from",
          "type": "address"
        },
        {
          "internalType": "address",
          "name": "to",
          "type": "address"
        },
        {
          "internalType": "uint256",
          "name": "tokenId",
          "type": "uint256"
        }
      ],
      "name": "transferFrom",
      "outputs": [],
      "stateMutability": "nonpayable",
      "type": "function"
    },
    {
      "inputs": [
        {
          "internalType": "string",
          "name": "name",
          "type": "string"
        }
      ],
      "name": "valid",
      "outputs": [
        {
          "internalType": "bool",
          "name": "",
          "type": "bool"
        }
      ],
      "stateMutability": "pure",
      "type": "function"
    },
    {
      "inputs": [],
      "name": "withdraw",
      "outputs": [],
      "stateMutability": "nonpayable",
      "type": "function"
    }
  ],
  "bytecode": "0x6080604052604051806107a0016040528061076e81526020016200531661076e9139600d908051906020019062000038929190620002c8565b506040518060400160405280600d81526020017f3c2f746578743e3c2f7376673e00000000000000000000000000000000000000815250600e908051906020019062000086929190620002c8565b5060405162005a8438038062005a848339818101604052810190620000ac919062000515565b6040518060400160405280601281526020017f456d6f6a69204e616d65205365727669636500000000000000000000000000008152506040518060400160405280600381526020017f454e530000000000000000000000000000000000000000000000000000000000815250816000908051906020019062000130929190620002c8565b50806001908051906020019062000149929190620002c8565b50505033600a60006101000a81548173ffffffffffffffffffffffffffffffffffffffff021916908373ffffffffffffffffffffffffffffffffffffffff1602179055508060079080519060200190620001a5929190620002c8565b50620001f26040518060400160405280601881526020017f2573206e616d652073657276696365206465706c6f796564000000000000000081525082620001f960201b62001bc41760201c565b5062000663565b6200029b828260405160240162000212929190620005c3565b6040516020818303038152906040527f4b5c4277000000000000000000000000000000000000000000000000000000007bffffffffffffffffffffffffffffffffffffffffffffffffffffffff19166020820180517bffffffffffffffffffffffffffffffffffffffffffffffffffffffff83818316178352505050506200029f60201b60201c565b5050565b60008151905060006a636f6e736f6c652e6c6f679050602083016000808483855afa5050505050565b828054620002d6906200062d565b90600052602060002090601f016020900481019282620002fa576000855562000346565b82601f106200031557805160ff191683800117855562000346565b8280016001018555821562000346579182015b828111156200034557825182559160200191906001019062000328565b5b50905062000355919062000359565b5090565b5b80821115620003745760008160009055506001016200035a565b5090565b6000604051905090565b600080fd5b600080fd5b600080fd5b600080fd5b6000601f19601f8301169050919050565b7f4e487b7100000000000000000000000000000000000000000000000000000000600052604160045260246000fd5b620003e18262000396565b810181811067ffffffffffffffff82111715620004035762000402620003a7565b5b80604052505050565b60006200041862000378565b9050620004268282620003d6565b919050565b600067ffffffffffffffff821115620004495762000448620003a7565b5b620004548262000396565b9050602081019050919050565b60005b838110156200048157808201518184015260208101905062000464565b8381111562000491576000848401525b50505050565b6000620004ae620004a8846200042b565b6200040c565b905082815260208101848484011115620004cd57620004cc62000391565b5b620004da84828562000461565b509392505050565b600082601f830112620004fa57620004f96200038c565b5b81516200050c84826020860162000497565b91505092915050565b6000602082840312156200052e576200052d62000382565b5b600082015167ffffffffffffffff8111156200054f576200054e62000387565b5b6200055d84828501620004e2565b91505092915050565b600081519050919050565b600082825260208201905092915050565b60006200058f8262000566565b6200059b818562000571565b9350620005ad81856020860162000461565b620005b88162000396565b840191505092915050565b60006040820190508181036000830152620005df818562000582565b90508181036020830152620005f5818462000582565b90509392505050565b7f4e487b7100000000000000000000000000000000000000000000000000000000600052602260045260246000fd5b600060028204905060018216806200064657607f821691505b602082108114156200065d576200065c620005fe565b5b50919050565b614ca380620006736000396000f3fe60806040526004361061019c5760003560e01c806370a08231116100ec578063bf40fac11161008a578063e985e9c511610064578063e985e9c514610624578063f2c298be14610661578063fb825e5f1461067d578063fe2c6198146106a85761019c565b8063bf40fac114610581578063c1880a98146105be578063c87b56dd146105e75761019c565b806395d89b41116100c657806395d89b41146104c75780639791c097146104f2578063a22cb4651461052f578063b88d4fde146105585761019c565b806370a08231146104345780638da5cb5b146104715780638f32d59b1461049c5761019c565b806323b872dd116101595780633ccfd60b116101335780633ccfd60b1461037a57806342842e0e146103915780634622ab03146103ba5780636352211e146103f75761019c565b806323b872dd146102e957806326449235146103125780632d5514321461034f5761019c565b806301ffc9a7146101a157806306fdde03146101de578063081812fc14610209578063095ea7b31461024657806310633aef1461026f57806311dd8845146102ac575b600080fd5b3480156101ad57600080fd5b506101c860048036038101906101c391906130a9565b6106e5565b6040516101d591906130f1565b60405180910390f35b3480156101ea57600080fd5b506101f36107c7565b60405161020091906131a5565b60405180910390f35b34801561021557600080fd5b50610230600480360381019061022b91906131fd565b610859565b60405161023d919061326b565b60405180910390f35b34801561025257600080fd5b5061026d600480360381019061026891906132b2565b6108de565b005b34801561027b57600080fd5b5061029660048036038101906102919190613427565b6109f6565b6040516102a391906131a5565b60405180910390f35b3480156102b857600080fd5b506102d360048036038101906102ce91906134d0565b610aac565b6040516102e091906131a5565b60405180910390f35b3480156102f557600080fd5b50610310600480360381019061030b919061351d565b610b5f565b005b34801561031e57600080fd5b5061033960048036038101906103349190613427565b610bbf565b604051610346919061326b565b60405180910390f35b34801561035b57600080fd5b50610364610c08565b60405161037191906131a5565b60405180910390f35b34801561038657600080fd5b5061038f610c96565b005b34801561039d57600080fd5b506103b860048036038101906103b3919061351d565b610d5c565b005b3480156103c657600080fd5b506103e160048036038101906103dc91906131fd565b610d7c565b6040516103ee91906131a5565b60405180910390f35b34801561040357600080fd5b5061041e600480360381019061041991906131fd565b610e1c565b60405161042b919061326b565b60405180910390f35b34801561044057600080fd5b5061045b60048036038101906104569190613570565b610ece565b60405161046891906135ac565b60405180910390f35b34801561047d57600080fd5b50610486610f86565b60405161049391906135e8565b60405180910390f35b3480156104a857600080fd5b506104b1610fac565b6040516104be91906130f1565b60405180910390f35b3480156104d357600080fd5b506104dc611004565b6040516104e991906131a5565b60405180910390f35b3480156104fe57600080fd5b50610519600480360381019061051491906134d0565b611096565b60405161052691906130f1565b60405180910390f35b34801561053b57600080fd5b506105566004803603810190610551919061362f565b61114a565b005b34801561056457600080fd5b5061057f600480360381019061057a9190613710565b611160565b005b34801561058d57600080fd5b506105a860048036038101906105a391906134d0565b6111c2565b6040516105b5919061326b565b60405180910390f35b3480156105ca57600080fd5b506105e560048036038101906105e09190613793565b61120d565b005b3480156105f357600080fd5b5061060e600480360381019061060991906131fd565b6112e8565b60405161061b91906131a5565b60405180910390f35b34801561063057600080fd5b5061064b60048036038101906106469190613814565b61143a565b60405161065891906130f1565b60405180910390f35b61067b600480360381019061067691906134d0565b6114ce565b005b34801561068957600080fd5b50610692611944565b60405161069f9190613960565b60405180910390f35b3480156106b457600080fd5b506106cf60048036038101906106ca91906134d0565b611b22565b6040516106dc91906135ac565b60405180910390f35b60007f80ac58cd000000000000000000000000000000000000000000000000000000007bffffffffffffffffffffffffffffffffffffffffffffffffffffffff1916827bffffffffffffffffffffffffffffffffffffffffffffffffffffffff191614806107b057507f5b5e139f000000000000000000000000000000000000000000000000000000007bffffffffffffffffffffffffffffffffffffffffffffffffffffffff1916827bffffffffffffffffffffffffffffffffffffffffffffffffffffffff1916145b806107c057506107bf82611c60565b5b9050919050565b6060600080546107d6906139b1565b80601f0160208091040260200160405190810160405280929190818152602001828054610802906139b1565b801561084f5780601f106108245761010080835404028352916020019161084f565b820191906000526020600020905b81548152906001019060200180831161083257829003601f168201915b5050505050905090565b600061086482611cca565b6108a3576040517f08c379a000000000000000000000000000000000000000000000000000000000815260040161089a90613a55565b60405180910390fd5b6004600083815260200190815260200160002060009054906101000a900473ffffffffffffffffffffffffffffffffffffffff169050919050565b60006108e982610e1c565b90508073ffffffffffffffffffffffffffffffffffffffff168373ffffffffffffffffffffffffffffffffffffffff16141561095a576040517f08c379a000000000000000000000000000000000000000000000000000000000815260040161095190613ae7565b60405180910390fd5b8073ffffffffffffffffffffffffffffffffffffffff16610979611d36565b73ffffffffffffffffffffffffffffffffffffffff1614806109a857506109a7816109a2611d36565b61143a565b5b6109e7576040517f08c379a00000000000000000000000000000000000000000000000000000000081526004016109de90613b79565b60405180910390fd5b6109f18383611d3e565b505050565b6009818051602081018201805184825260208301602085012081835280955050505050506000915090508054610a2b906139b1565b80601f0160208091040260200160405190810160405280929190818152602001828054610a57906139b1565b8015610aa45780601f10610a7957610100808354040283529160200191610aa4565b820191906000526020600020905b815481529060010190602001808311610a8757829003601f168201915b505050505081565b606060098383604051610ac0929190613bc9565b90815260200160405180910390208054610ad9906139b1565b80601f0160208091040260200160405190810160405280929190818152602001828054610b05906139b1565b8015610b525780601f10610b2757610100808354040283529160200191610b52565b820191906000526020600020905b815481529060010190602001808311610b3557829003601f168201915b5050505050905092915050565b610b70610b6a611d36565b82611df7565b610baf576040517f08c379a0000000000000000000000000000000000000000000000000000000008152600401610ba690613c54565b60405180910390fd5b610bba838383611ed5565b505050565b6008818051602081018201805184825260208301602085012081835280955050505050506000915054906101000a900473ffffffffffffffffffffffffffffffffffffffff1681565b60078054610c15906139b1565b80601f0160208091040260200160405190810160405280929190818152602001828054610c41906139b1565b8015610c8e5780601f10610c6357610100808354040283529160200191610c8e565b820191906000526020600020905b815481529060010190602001808311610c7157829003601f168201915b505050505081565b610c9e610fac565b610ca757600080fd5b600047905060003373ffffffffffffffffffffffffffffffffffffffff1682604051610cd290613ca5565b60006040518083038185875af1925050503d8060008114610d0f576040519150601f19603f3d011682016040523d82523d6000602084013e610d14565b606091505b5050905080610d58576040517f08c379a0000000000000000000000000000000000000000000000000000000008152600401610d4f90613d06565b60405180910390fd5b5050565b610d7783838360405180602001604052806000815250611160565b505050565b600b6020528060005260406000206000915090508054610d9b906139b1565b80601f0160208091040260200160405190810160405280929190818152602001828054610dc7906139b1565b8015610e145780601f10610de957610100808354040283529160200191610e14565b820191906000526020600020905b815481529060010190602001808311610df757829003601f168201915b505050505081565b6000806002600084815260200190815260200160002060009054906101000a900473ffffffffffffffffffffffffffffffffffffffff169050600073ffffffffffffffffffffffffffffffffffffffff168173ffffffffffffffffffffffffffffffffffffffff161415610ec5576040517f08c379a0000000000000000000000000000000000000000000000000000000008152600401610ebc90613d98565b60405180910390fd5b80915050919050565b60008073ffffffffffffffffffffffffffffffffffffffff168273ffffffffffffffffffffffffffffffffffffffff161415610f3f576040517f08c379a0000000000000000000000000000000000000000000000000000000008152600401610f3690613e2a565b60405180910390fd5b600360008373ffffffffffffffffffffffffffffffffffffffff1673ffffffffffffffffffffffffffffffffffffffff168152602001908152602001600020549050919050565b600a60009054906101000a900473ffffffffffffffffffffffffffffffffffffffff1681565b6000600a60009054906101000a900473ffffffffffffffffffffffffffffffffffffffff1673ffffffffffffffffffffffffffffffffffffffff163373ffffffffffffffffffffffffffffffffffffffff1614905090565b606060018054611013906139b1565b80601f016020809104026020016040519081016040528092919081815260200182805461103f906139b1565b801561108c5780601f106110615761010080835404028352916020019161108c565b820191906000526020600020905b81548152906001019060200180831161106f57829003601f168201915b5050505050905090565b600060036110e784848080601f016020809104026020016040519081016040528093929190818152602001838380828437600081840152601f19601f8201169050808301925050505050505061213c565b101580156111425750600a61113f84848080601f016020809104026020016040519081016040528093929190818152602001838380828437600081840152601f19601f8201169050808301925050505050505061213c565b11155b905092915050565b61115c611155611d36565b83836122f1565b5050565b61117161116b611d36565b83611df7565b6111b0576040517f08c379a00000000000000000000000000000000000000000000000000000000081526004016111a790613c54565b60405180910390fd5b6111bc8484848461245e565b50505050565b6000600883836040516111d6929190613bc9565b908152602001604051809103902060009054906101000a900473ffffffffffffffffffffffffffffffffffffffff16905092915050565b6008848460405161121f929190613bc9565b908152602001604051809103902060009054906101000a900473ffffffffffffffffffffffffffffffffffffffff1673ffffffffffffffffffffffffffffffffffffffff163373ffffffffffffffffffffffffffffffffffffffff16146112b2576040517f82b4290000000000000000000000000000000000000000000000000000000000815260040160405180910390fd5b8181600986866040516112c6929190613bc9565b908152602001604051809103902091906112e1929190612f14565b5050505050565b60606112f382611cca565b611332576040517f08c379a000000000000000000000000000000000000000000000000000000000815260040161132990613ebc565b60405180910390fd5b6000600660008481526020019081526020016000208054611352906139b1565b80601f016020809104026020016040519081016040528092919081815260200182805461137e906139b1565b80156113cb5780601f106113a0576101008083540402835291602001916113cb565b820191906000526020600020905b8154815290600101906020018083116113ae57829003601f168201915b5050505050905060006113dc6124ba565b90506000815114156113f2578192505050611435565b60008251111561142757808260405160200161140f929190613f0d565b60405160208183030381529060405292505050611435565b611430846124d1565b925050505b919050565b6000600560008473ffffffffffffffffffffffffffffffffffffffff1673ffffffffffffffffffffffffffffffffffffffff16815260200190815260200160002060008373ffffffffffffffffffffffffffffffffffffffff1673ffffffffffffffffffffffffffffffffffffffff16815260200190815260200160002060009054906101000a900460ff16905092915050565b600073ffffffffffffffffffffffffffffffffffffffff16600883836040516114f8929190613bc9565b908152602001604051809103902060009054906101000a900473ffffffffffffffffffffffffffffffffffffffff1673ffffffffffffffffffffffffffffffffffffffff1614611574576040517f3a81d6fc00000000000000000000000000000000000000000000000000000000815260040160405180910390fd5b61157e8282611096565b6115c15781816040517f7f19f48d0000000000000000000000000000000000000000000000000000000081526004016115b8929190613f5e565b60405180910390fd5b600073ffffffffffffffffffffffffffffffffffffffff16600883836040516115eb929190613bc9565b908152602001604051809103902060009054906101000a900473ffffffffffffffffffffffffffffffffffffffff1673ffffffffffffffffffffffffffffffffffffffff161461163a57600080fd5b60006116468383611b22565b90508034101561168b576040517f08c379a000000000000000000000000000000000000000000000000000000000815260040161168290613fce565b60405180910390fd5b6000838360076040516020016116a3939291906140ce565b60405160208183030381529060405290506000600d82600e6040516020016116cd939291906140ff565b604051602081830303815290604052905060006116ea600c612578565b9050600061173b87878080601f016020809104026020016040519081016040528093929190818152602001838380828437600081840152601f19601f8201169050808301925050505050505061213c565b9050600061174882612586565b905061183c604051806060016040528060318152602001614bfd6031913989898080601f016020809104026020016040519081016040528093929190818152602001838380828437600081840152601f19601f82011690508083019250505050505050600780546117b8906139b1565b80601f01602080910402602001604051908101604052809291908181526020018280546117e4906139b1565b80156118315780601f1061180657610100808354040283529160200191611831565b820191906000526020600020905b81548152906001019060200180831161181457829003601f168201915b5050505050866126e7565b60006118728661184b87612789565b8460405160200161185e939291906142ac565b604051602081830303815290604052612789565b90506000816040516020016118879190614355565b60405160208183030381529060405290506118a23386612921565b6118ac858261293f565b3360088b8b6040516118bf929190613bc9565b908152602001604051809103902060006101000a81548173ffffffffffffffffffffffffffffffffffffffff021916908373ffffffffffffffffffffffffffffffffffffffff1602179055508989600b6000888152602001908152602001600020919061192d929190612f14565b50611938600c6129b3565b50505050505050505050565b60606119846040518060400160405280601f81526020017f47657474696e6720616c6c206e616d65732066726f6d20636f6e7472616374008152506129c9565b6000611990600c612578565b67ffffffffffffffff8111156119a9576119a86132fc565b5b6040519080825280602002602001820160405280156119dc57816020015b60608152602001906001900390816119c75790505b50905060005b6119ec600c612578565b811015611b1a57600b60008281526020019081526020016000208054611a11906139b1565b80601f0160208091040260200160405190810160405280929190818152602001828054611a3d906139b1565b8015611a8a5780601f10611a5f57610100808354040283529160200191611a8a565b820191906000526020600020905b815481529060010190602001808311611a6d57829003601f168201915b5050505050828281518110611aa257611aa1614377565b5b6020026020010181905250611b076040518060400160405280601781526020017f4e616d6520666f7220746f6b656e20256420697320257300000000000000000081525082848481518110611afa57611af9614377565b5b6020026020010151612a62565b8080611b12906143d5565b9150506119e2565b508091505090565b600080611b7284848080601f016020809104026020016040519081016040528093929190818152602001838380828437600081840152601f19601f8201169050808301925050505050505061213c565b905060008111611b8157600080fd5b6003811415611b9a576601c6bf52634000915050611bbe565b6004811415611bb357660110d9316ec000915050611bbe565b655af3107a40009150505b92915050565b611c5c8282604051602401611bda92919061441e565b6040516020818303038152906040527f4b5c4277000000000000000000000000000000000000000000000000000000007bffffffffffffffffffffffffffffffffffffffffffffffffffffffff19166020820180517bffffffffffffffffffffffffffffffffffffffffffffffffffffffff8381831617835250505050612b01565b5050565b60007f01ffc9a7000000000000000000000000000000000000000000000000000000007bffffffffffffffffffffffffffffffffffffffffffffffffffffffff1916827bffffffffffffffffffffffffffffffffffffffffffffffffffffffff1916149050919050565b60008073ffffffffffffffffffffffffffffffffffffffff166002600084815260200190815260200160002060009054906101000a900473ffffffffffffffffffffffffffffffffffffffff1673ffffffffffffffffffffffffffffffffffffffff1614159050919050565b600033905090565b816004600083815260200190815260200160002060006101000a81548173ffffffffffffffffffffffffffffffffffffffff021916908373ffffffffffffffffffffffffffffffffffffffff160217905550808273ffffffffffffffffffffffffffffffffffffffff16611db183610e1c565b73ffffffffffffffffffffffffffffffffffffffff167f8c5be1e5ebec7d5bd14f71427d1e84f3dd0314c0f7b2291e5b200ac8c7c3b92560405160405180910390a45050565b6000611e0282611cca565b611e41576040517f08c379a0000000000000000000000000000000000000000000000000000000008152600401611e38906144c7565b60405180910390fd5b6000611e4c83610e1c565b90508073ffffffffffffffffffffffffffffffffffffffff168473ffffffffffffffffffffffffffffffffffffffff161480611ebb57508373ffffffffffffffffffffffffffffffffffffffff16611ea384610859565b73ffffffffffffffffffffffffffffffffffffffff16145b80611ecc5750611ecb818561143a565b5b91505092915050565b8273ffffffffffffffffffffffffffffffffffffffff16611ef582610e1c565b73ffffffffffffffffffffffffffffffffffffffff1614611f4b576040517f08c379a0000000000000000000000000000000000000000000000000000000008152600401611f4290614559565b60405180910390fd5b600073ffffffffffffffffffffffffffffffffffffffff168273ffffffffffffffffffffffffffffffffffffffff161415611fbb576040517f08c379a0000000000000000000000000000000000000000000000000000000008152600401611fb2906145eb565b60405180910390fd5b611fc6838383612b2a565b611fd1600082611d3e565b6001600360008573ffffffffffffffffffffffffffffffffffffffff1673ffffffffffffffffffffffffffffffffffffffff1681526020019081526020016000206000828254612021919061460b565b925050819055506001600360008473ffffffffffffffffffffffffffffffffffffffff1673ffffffffffffffffffffffffffffffffffffffff1681526020019081526020016000206000828254612078919061463f565b92505081905550816002600083815260200190815260200160002060006101000a81548173ffffffffffffffffffffffffffffffffffffffff021916908373ffffffffffffffffffffffffffffffffffffffff160217905550808273ffffffffffffffffffffffffffffffffffffffff168473ffffffffffffffffffffffffffffffffffffffff167fddf252ad1be2c89b69c2b068fc378daa952ba7f163c4a11628f55a4df523b3ef60405160405180910390a4612137838383612b2f565b505050565b60008060008084519050600092505b808210156122e657600085838151811061216857612167614377565b5b602001015160f81c60f81b9050608060f81b817effffffffffffffffffffffffffffffffffffffffffffffffffffffffffffff191610156121b7576001836121b0919061463f565b92506122d2565b60e060f81b817effffffffffffffffffffffffffffffffffffffffffffffffffffffffffffff191610156121f9576002836121f2919061463f565b92506122d1565b60f060f81b817effffffffffffffffffffffffffffffffffffffffffffffffffffffffffffff1916101561223b57600383612234919061463f565b92506122d0565b60f8801b817effffffffffffffffffffffffffffffffffffffffffffffffffffffffffffff1916101561227c57600483612275919061463f565b92506122cf565b60fc60f81b817effffffffffffffffffffffffffffffffffffffffffffffffffffffffffffff191610156122be576005836122b7919061463f565b92506122ce565b6006836122cb919061463f565b92505b5b5b5b5b5082806122de906143d5565b93505061214b565b829350505050919050565b8173ffffffffffffffffffffffffffffffffffffffff168373ffffffffffffffffffffffffffffffffffffffff161415612360576040517f08c379a0000000000000000000000000000000000000000000000000000000008152600401612357906146e1565b60405180910390fd5b80600560008573ffffffffffffffffffffffffffffffffffffffff1673ffffffffffffffffffffffffffffffffffffffff16815260200190815260200160002060008473ffffffffffffffffffffffffffffffffffffffff1673ffffffffffffffffffffffffffffffffffffffff16815260200190815260200160002060006101000a81548160ff0219169083151502179055508173ffffffffffffffffffffffffffffffffffffffff168373ffffffffffffffffffffffffffffffffffffffff167f17307eab39ab6107e8899845ad3d59bd9653f200f220920489ca2b5937696c318360405161245191906130f1565b60405180910390a3505050565b612469848484611ed5565b61247584848484612b34565b6124b4576040517f08c379a00000000000000000000000000000000000000000000000000000000081526004016124ab90614773565b60405180910390fd5b50505050565b606060405180602001604052806000815250905090565b60606124dc82611cca565b61251b576040517f08c379a000000000000000000000000000000000000000000000000000000000815260040161251290614805565b60405180910390fd5b60006125256124ba565b905060008151116125455760405180602001604052806000815250612570565b8061254f84612586565b604051602001612560929190613f0d565b6040516020818303038152906040525b915050919050565b600081600001549050919050565b606060008214156125ce576040518060400160405280600181526020017f300000000000000000000000000000000000000000000000000000000000000081525090506126e2565b600082905060005b600082146126005780806125e9906143d5565b915050600a826125f99190614854565b91506125d6565b60008167ffffffffffffffff81111561261c5761261b6132fc565b5b6040519080825280601f01601f19166020018201604052801561264e5781602001600182028036833780820191505090505b5090505b600085146126db57600182612667919061460b565b9150600a856126769190614885565b6030612682919061463f565b60f81b81838151811061269857612697614377565b5b60200101907effffffffffffffffffffffffffffffffffffffffffffffffffffffffffffff1916908160001a905350600a856126d49190614854565b9450612652565b8093505050505b919050565b6127838484848460405160240161270194939291906148b6565b6040516020818303038152906040527f9fd009f5000000000000000000000000000000000000000000000000000000007bffffffffffffffffffffffffffffffffffffffffffffffffffffffff19166020820180517bffffffffffffffffffffffffffffffffffffffffffffffffffffffff8381831617835250505050612b01565b50505050565b606060008251905060008114156127b2576040518060200160405280600081525091505061291c565b600060036002836127c3919061463f565b6127cd9190614854565b60046127d99190614910565b905060006020826127ea919061463f565b67ffffffffffffffff811115612803576128026132fc565b5b6040519080825280601f01601f1916602001820160405280156128355781602001600182028036833780820191505090505b5090506000604051806060016040528060408152602001614c2e604091399050600181016020830160005b868110156128d95760038101905062ffffff818a015116603f8160121c168401518060081b905060ff603f83600c1c1686015116810190508060081b905060ff603f8360061c1686015116810190508060081b905060ff603f831686015116810190508060e01b90508084526004840193505050612860565b5060038606600181146128f357600281146129035761290e565b613d3d60f01b600283035261290e565b603d60f81b60018303525b508484525050819450505050505b919050565b61293b828260405180602001604052806000815250612cbc565b5050565b61294882611cca565b612987576040517f08c379a000000000000000000000000000000000000000000000000000000000815260040161297e906149dc565b60405180910390fd5b806006600084815260200190815260200160002090805190602001906129ae929190612f9a565b505050565b6001816000016000828254019250508190555050565b612a5f816040516024016129dd91906131a5565b6040516020818303038152906040527f41304fac000000000000000000000000000000000000000000000000000000007bffffffffffffffffffffffffffffffffffffffffffffffffffffffff19166020820180517bffffffffffffffffffffffffffffffffffffffffffffffffffffffff8381831617835250505050612b01565b50565b612afc838383604051602401612a7a939291906149fc565b6040516020818303038152906040527fa3f5c739000000000000000000000000000000000000000000000000000000007bffffffffffffffffffffffffffffffffffffffffffffffffffffffff19166020820180517bffffffffffffffffffffffffffffffffffffffffffffffffffffffff8381831617835250505050612b01565b505050565b60008151905060006a636f6e736f6c652e6c6f679050602083016000808483855afa5050505050565b505050565b505050565b6000612b558473ffffffffffffffffffffffffffffffffffffffff16612d17565b15612caf578373ffffffffffffffffffffffffffffffffffffffff1663150b7a02612b7e611d36565b8786866040518563ffffffff1660e01b8152600401612ba09493929190614a96565b6020604051808303816000875af1925050508015612bdc57506040513d601f19601f82011682018060405250810190612bd99190614af7565b60015b612c5f573d8060008114612c0c576040519150601f19603f3d011682016040523d82523d6000602084013e612c11565b606091505b50600081511415612c57576040517f08c379a0000000000000000000000000000000000000000000000000000000008152600401612c4e90614773565b60405180910390fd5b805181602001fd5b63150b7a0260e01b7bffffffffffffffffffffffffffffffffffffffffffffffffffffffff1916817bffffffffffffffffffffffffffffffffffffffffffffffffffffffff191614915050612cb4565b600190505b949350505050565b612cc68383612d3a565b612cd36000848484612b34565b612d12576040517f08c379a0000000000000000000000000000000000000000000000000000000008152600401612d0990614773565b60405180910390fd5b505050565b6000808273ffffffffffffffffffffffffffffffffffffffff163b119050919050565b600073ffffffffffffffffffffffffffffffffffffffff168273ffffffffffffffffffffffffffffffffffffffff161415612daa576040517f08c379a0000000000000000000000000000000000000000000000000000000008152600401612da190614b70565b60405180910390fd5b612db381611cca565b15612df3576040517f08c379a0000000000000000000000000000000000000000000000000000000008152600401612dea90614bdc565b60405180910390fd5b612dff60008383612b2a565b6001600360008473ffffffffffffffffffffffffffffffffffffffff1673ffffffffffffffffffffffffffffffffffffffff1681526020019081526020016000206000828254612e4f919061463f565b92505081905550816002600083815260200190815260200160002060006101000a81548173ffffffffffffffffffffffffffffffffffffffff021916908373ffffffffffffffffffffffffffffffffffffffff160217905550808273ffffffffffffffffffffffffffffffffffffffff16600073ffffffffffffffffffffffffffffffffffffffff167fddf252ad1be2c89b69c2b068fc378daa952ba7f163c4a11628f55a4df523b3ef60405160405180910390a4612f1060008383612b2f565b5050565b828054612f20906139b1565b90600052602060002090601f016020900481019282612f425760008555612f89565b82601f10612f5b57803560ff1916838001178555612f89565b82800160010185558215612f89579182015b82811115612f88578235825591602001919060010190612f6d565b5b509050612f969190613020565b5090565b828054612fa6906139b1565b90600052602060002090601f016020900481019282612fc8576000855561300f565b82601f10612fe157805160ff191683800117855561300f565b8280016001018555821561300f579182015b8281111561300e578251825591602001919060010190612ff3565b5b50905061301c9190613020565b5090565b5b80821115613039576000816000905550600101613021565b5090565b6000604051905090565b600080fd5b600080fd5b60007fffffffff0000000000000000000000000000000000000000000000000000000082169050919050565b61308681613051565b811461309157600080fd5b50565b6000813590506130a38161307d565b92915050565b6000602082840312156130bf576130be613047565b5b60006130cd84828501613094565b91505092915050565b60008115159050919050565b6130eb816130d6565b82525050565b600060208201905061310660008301846130e2565b92915050565b600081519050919050565b600082825260208201905092915050565b60005b8381101561314657808201518184015260208101905061312b565b83811115613155576000848401525b50505050565b6000601f19601f8301169050919050565b60006131778261310c565b6131818185613117565b9350613191818560208601613128565b61319a8161315b565b840191505092915050565b600060208201905081810360008301526131bf818461316c565b905092915050565b6000819050919050565b6131da816131c7565b81146131e557600080fd5b50565b6000813590506131f7816131d1565b92915050565b60006020828403121561321357613212613047565b5b6000613221848285016131e8565b91505092915050565b600073ffffffffffffffffffffffffffffffffffffffff82169050919050565b60006132558261322a565b9050919050565b6132658161324a565b82525050565b6000602082019050613280600083018461325c565b92915050565b61328f8161324a565b811461329a57600080fd5b50565b6000813590506132ac81613286565b92915050565b600080604083850312156132c9576132c8613047565b5b60006132d78582860161329d565b92505060206132e8858286016131e8565b9150509250929050565b600080fd5b600080fd5b7f4e487b7100000000000000000000000000000000000000000000000000000000600052604160045260246000fd5b6133348261315b565b810181811067ffffffffffffffff82111715613353576133526132fc565b5b80604052505050565b600061336661303d565b9050613372828261332b565b919050565b600067ffffffffffffffff821115613392576133916132fc565b5b61339b8261315b565b9050602081019050919050565b82818337600083830152505050565b60006133ca6133c584613377565b61335c565b9050828152602081018484840111156133e6576133e56132f7565b5b6133f18482856133a8565b509392505050565b600082601f83011261340e5761340d6132f2565b5b813561341e8482602086016133b7565b91505092915050565b60006020828403121561343d5761343c613047565b5b600082013567ffffffffffffffff81111561345b5761345a61304c565b5b613467848285016133f9565b91505092915050565b600080fd5b600080fd5b60008083601f8401126134905761348f6132f2565b5b8235905067ffffffffffffffff8111156134ad576134ac613470565b5b6020830191508360018202830111156134c9576134c8613475565b5b9250929050565b600080602083850312156134e7576134e6613047565b5b600083013567ffffffffffffffff8111156135055761350461304c565b5b6135118582860161347a565b92509250509250929050565b60008060006060848603121561353657613535613047565b5b60006135448682870161329d565b93505060206135558682870161329d565b9250506040613566868287016131e8565b9150509250925092565b60006020828403121561358657613585613047565b5b60006135948482850161329d565b91505092915050565b6135a6816131c7565b82525050565b60006020820190506135c1600083018461359d565b92915050565b60006135d28261322a565b9050919050565b6135e2816135c7565b82525050565b60006020820190506135fd60008301846135d9565b92915050565b61360c816130d6565b811461361757600080fd5b50565b60008135905061362981613603565b92915050565b6000806040838503121561364657613645613047565b5b60006136548582860161329d565b92505060206136658582860161361a565b9150509250929050565b600067ffffffffffffffff82111561368a576136896132fc565b5b6136938261315b565b9050602081019050919050565b60006136b36136ae8461366f565b61335c565b9050828152602081018484840111156136cf576136ce6132f7565b5b6136da8482856133a8565b509392505050565b600082601f8301126136f7576136f66132f2565b5b81356137078482602086016136a0565b91505092915050565b6000806000806080858703121561372a57613729613047565b5b60006137388782880161329d565b94505060206137498782880161329d565b935050604061375a878288016131e8565b925050606085013567ffffffffffffffff81111561377b5761377a61304c565b5b613787878288016136e2565b91505092959194509250565b600080600080604085870312156137ad576137ac613047565b5b600085013567ffffffffffffffff8111156137cb576137ca61304c565b5b6137d78782880161347a565b9450945050602085013567ffffffffffffffff8111156137fa576137f961304c565b5b6138068782880161347a565b925092505092959194509250565b6000806040838503121561382b5761382a613047565b5b60006138398582860161329d565b925050602061384a8582860161329d565b9150509250929050565b600081519050919050565b600082825260208201905092915050565b6000819050602082019050919050565b600082825260208201905092915050565b600061389c8261310c565b6138a68185613880565b93506138b6818560208601613128565b6138bf8161315b565b840191505092915050565b60006138d68383613891565b905092915050565b6000602082019050919050565b60006138f682613854565b613900818561385f565b93508360208202850161391285613870565b8060005b8581101561394e578484038952815161392f85826138ca565b945061393a836138de565b925060208a01995050600181019050613916565b50829750879550505050505092915050565b6000602082019050818103600083015261397a81846138eb565b905092915050565b7f4e487b7100000000000000000000000000000000000000000000000000000000600052602260045260246000fd5b600060028204905060018216806139c957607f821691505b602082108114156139dd576139dc613982565b5b50919050565b7f4552433732313a20617070726f76656420717565727920666f72206e6f6e657860008201527f697374656e7420746f6b656e0000000000000000000000000000000000000000602082015250565b6000613a3f602c83613117565b9150613a4a826139e3565b604082019050919050565b60006020820190508181036000830152613a6e81613a32565b9050919050565b7f4552433732313a20617070726f76616c20746f2063757272656e74206f776e6560008201527f7200000000000000000000000000000000000000000000000000000000000000602082015250565b6000613ad1602183613117565b9150613adc82613a75565b604082019050919050565b60006020820190508181036000830152613b0081613ac4565b9050919050565b7f4552433732313a20617070726f76652063616c6c6572206973206e6f74206f7760008201527f6e6572206e6f7220617070726f76656420666f7220616c6c0000000000000000602082015250565b6000613b63603883613117565b9150613b6e82613b07565b604082019050919050565b60006020820190508181036000830152613b9281613b56565b9050919050565b600081905092915050565b6000613bb08385613b99565b9350613bbd8385846133a8565b82840190509392505050565b6000613bd6828486613ba4565b91508190509392505050565b7f4552433732313a207472616e736665722063616c6c6572206973206e6f74206f60008201527f776e6572206e6f7220617070726f766564000000000000000000000000000000602082015250565b6000613c3e603183613117565b9150613c4982613be2565b604082019050919050565b60006020820190508181036000830152613c6d81613c31565b9050919050565b600081905092915050565b50565b6000613c8f600083613c74565b9150613c9a82613c7f565b600082019050919050565b6000613cb082613c82565b9150819050919050565b7f4661696c656420746f207769746864726177204d617469630000000000000000600082015250565b6000613cf0601883613117565b9150613cfb82613cba565b602082019050919050565b60006020820190508181036000830152613d1f81613ce3565b9050919050565b7f4552433732313a206f776e657220717565727920666f72206e6f6e657869737460008201527f656e7420746f6b656e0000000000000000000000000000000000000000000000602082015250565b6000613d82602983613117565b9150613d8d82613d26565b604082019050919050565b60006020820190508181036000830152613db181613d75565b9050919050565b7f4552433732313a2062616c616e636520717565727920666f7220746865207a6560008201527f726f206164647265737300000000000000000000000000000000000000000000602082015250565b6000613e14602a83613117565b9150613e1f82613db8565b604082019050919050565b60006020820190508181036000830152613e4381613e07565b9050919050565b7f45524337323155524953746f726167653a2055524920717565727920666f722060008201527f6e6f6e6578697374656e7420746f6b656e000000000000000000000000000000602082015250565b6000613ea6603183613117565b9150613eb182613e4a565b604082019050919050565b60006020820190508181036000830152613ed581613e99565b9050919050565b6000613ee78261310c565b613ef18185613b99565b9350613f01818560208601613128565b80840191505092915050565b6000613f198285613edc565b9150613f258284613edc565b91508190509392505050565b6000613f3d8385613117565b9350613f4a8385846133a8565b613f538361315b565b840190509392505050565b60006020820190508181036000830152613f79818486613f31565b90509392505050565b7f4e6f7420656e6f756768204d6174696320706169640000000000000000000000600082015250565b6000613fb8601583613117565b9150613fc382613f82565b602082019050919050565b60006020820190508181036000830152613fe781613fab565b9050919050565b7f2e00000000000000000000000000000000000000000000000000000000000000600082015250565b6000614024600183613b99565b915061402f82613fee565b600182019050919050565b60008190508160005260206000209050919050565b6000815461405c816139b1565b6140668186613b99565b945060018216600081146140815760018114614092576140c5565b60ff198316865281860193506140c5565b61409b8561403a565b60005b838110156140bd5781548189015260018201915060208101905061409e565b838801955050505b50505092915050565b60006140db828587613ba4565b91506140e682614017565b91506140f2828461404f565b9150819050949350505050565b600061410b828661404f565b91506141178285613edc565b9150614123828461404f565b9150819050949350505050565b7f7b226e616d65223a202200000000000000000000000000000000000000000000600082015250565b6000614166600a83613b99565b915061417182614130565b600a82019050919050565b7f222c20226465736372697074696f6e223a20224120646f6d61696e206f6e207460008201527f686520456d6f6a69204e616d652053657276696365222c2022696d616765223a60208201527f2022646174613a696d6167652f7376672b786d6c3b6261736536342c00000000604082015250565b60006141fe605c83613b99565b91506142098261417c565b605c82019050919050565b7f222c226c656e677468223a220000000000000000000000000000000000000000600082015250565b600061424a600c83613b99565b915061425582614214565b600c82019050919050565b7f227d000000000000000000000000000000000000000000000000000000000000600082015250565b6000614296600283613b99565b91506142a182614260565b600282019050919050565b60006142b782614159565b91506142c38286613edc565b91506142ce826141f1565b91506142da8285613edc565b91506142e58261423d565b91506142f18284613edc565b91506142fc82614289565b9150819050949350505050565b7f646174613a6170706c69636174696f6e2f6a736f6e3b6261736536342c000000600082015250565b600061433f601d83613b99565b915061434a82614309565b601d82019050919050565b600061436082614332565b915061436c8284613edc565b915081905092915050565b7f4e487b7100000000000000000000000000000000000000000000000000000000600052603260045260246000fd5b7f4e487b7100000000000000000000000000000000000000000000000000000000600052601160045260246000fd5b60006143e0826131c7565b91507fffffffffffffffffffffffffffffffffffffffffffffffffffffffffffffffff821415614413576144126143a6565b5b600182019050919050565b60006040820190508181036000830152614438818561316c565b9050818103602083015261444c818461316c565b90509392505050565b7f4552433732313a206f70657261746f7220717565727920666f72206e6f6e657860008201527f697374656e7420746f6b656e0000000000000000000000000000000000000000602082015250565b60006144b1602c83613117565b91506144bc82614455565b604082019050919050565b600060208201905081810360008301526144e0816144a4565b9050919050565b7f4552433732313a207472616e736665722066726f6d20696e636f72726563742060008201527f6f776e6572000000000000000000000000000000000000000000000000000000602082015250565b6000614543602583613117565b915061454e826144e7565b604082019050919050565b6000602082019050818103600083015261457281614536565b9050919050565b7f4552433732313a207472616e7366657220746f20746865207a65726f2061646460008201527f7265737300000000000000000000000000000000000000000000000000000000602082015250565b60006145d5602483613117565b91506145e082614579565b604082019050919050565b60006020820190508181036000830152614604816145c8565b9050919050565b6000614616826131c7565b9150614621836131c7565b925082821015614634576146336143a6565b5b828203905092915050565b600061464a826131c7565b9150614655836131c7565b9250827fffffffffffffffffffffffffffffffffffffffffffffffffffffffffffffffff0382111561468a576146896143a6565b5b828201905092915050565b7f4552433732313a20617070726f766520746f2063616c6c657200000000000000600082015250565b60006146cb601983613117565b91506146d682614695565b602082019050919050565b600060208201905081810360008301526146fa816146be565b9050919050565b7f4552433732313a207472616e7366657220746f206e6f6e20455243373231526560008201527f63656976657220696d706c656d656e7465720000000000000000000000000000602082015250565b600061475d603283613117565b915061476882614701565b604082019050919050565b6000602082019050818103600083015261478c81614750565b9050919050565b7f4552433732314d657461646174613a2055524920717565727920666f72206e6f60008201527f6e6578697374656e7420746f6b656e0000000000000000000000000000000000602082015250565b60006147ef602f83613117565b91506147fa82614793565b604082019050919050565b6000602082019050818103600083015261481e816147e2565b9050919050565b7f4e487b7100000000000000000000000000000000000000000000000000000000600052601260045260246000fd5b600061485f826131c7565b915061486a836131c7565b92508261487a57614879614825565b5b828204905092915050565b6000614890826131c7565b915061489b836131c7565b9250826148ab576148aa614825565b5b828206905092915050565b600060808201905081810360008301526148d0818761316c565b905081810360208301526148e4818661316c565b905081810360408301526148f8818561316c565b9050614907606083018461359d565b95945050505050565b600061491b826131c7565b9150614926836131c7565b9250817fffffffffffffffffffffffffffffffffffffffffffffffffffffffffffffffff048311821515161561495f5761495e6143a6565b5b828202905092915050565b7f45524337323155524953746f726167653a2055524920736574206f66206e6f6e60008201527f6578697374656e7420746f6b656e000000000000000000000000000000000000602082015250565b60006149c6602e83613117565b91506149d18261496a565b604082019050919050565b600060208201905081810360008301526149f5816149b9565b9050919050565b60006060820190508181036000830152614a16818661316c565b9050614a25602083018561359d565b8181036040830152614a37818461316c565b9050949350505050565b600081519050919050565b600082825260208201905092915050565b6000614a6882614a41565b614a728185614a4c565b9350614a82818560208601613128565b614a8b8161315b565b840191505092915050565b6000608082019050614aab600083018761325c565b614ab8602083018661325c565b614ac5604083018561359d565b8181036060830152614ad78184614a5d565b905095945050505050565b600081519050614af18161307d565b92915050565b600060208284031215614b0d57614b0c613047565b5b6000614b1b84828501614ae2565b91505092915050565b7f4552433732313a206d696e7420746f20746865207a65726f2061646472657373600082015250565b6000614b5a602083613117565b9150614b6582614b24565b602082019050919050565b60006020820190508181036000830152614b8981614b4d565b9050919050565b7f4552433732313a20746f6b656e20616c7265616479206d696e74656400000000600082015250565b6000614bc6601c83613117565b9150614bd182614b90565b602082019050919050565b60006020820190508181036000830152614bf581614bb9565b905091905056fe5265676973746572696e672025732e2573206f6e2074686520636f6e7472616374207769746820746f6b656e49442025644142434445464748494a4b4c4d4e4f505152535455565758595a6162636465666768696a6b6c6d6e6f707172737475767778797a303132333435363738392b2fa26469706673582212203143623eb12286b4ed51b0deff6a30c4ec41eb09262eb472933a64d6d0563f9364736f6c634300080a00333c73766720786d6c6e733d22687474703a2f2f7777772e77332e6f72672f323030302f737667222077696474683d2232373022206865696768743d22323730222066696c6c3d226e6f6e65223e3c706174682066696c6c3d2275726c282361292220643d224d302030683237307632373048307a222f3e3c646566733e3c66696c7465722069643d22622220636f6c6f722d696e746572706f6c6174696f6e2d66696c746572733d2273524742222066696c746572556e6974733d227573657253706163654f6e55736522206865696768743d22323730222077696474683d22323730223e3c666544726f70536861646f772064783d2232222064793d22312220737464446576696174696f6e3d22322220666c6f6f642d6f7061636974793d222e33222077696474683d223230302522206865696768743d2232303025222f3e3c2f66696c7465723e3c2f646566733e3c7061746820643d224d37322e3836332034322e39343961342e33383220342e3338322030203020302d342e33393420306c2d31302e30383120362e3033322d362e383520332e3933342d31302e30383120362e30333261342e33383220342e3338322030203020312d342e33393420306c2d382e3031332d342e37323161342e353220342e35322030203020312d312e3538392d312e36313620342e353420342e35342030203020312d2e3630382d322e313837762d392e333161342e323720342e3237203020302031202e3537322d322e32303820342e323520342e323520302030203120312e3632352d312e3539356c372e3838342d342e353961342e33383220342e33383220302030203120342e33393420306c372e38383420342e353961342e353220342e353220302030203120312e35383920312e36313620342e353420342e3534203020302031202e36303820322e31383776362e3033326c362e38352d342e303635762d362e30333261342e323720342e32372030203020302d2e3537322d322e32303820342e323520342e32352030203020302d312e3632352d312e3539354c34312e3435362032342e353961342e33383220342e3338322030203020302d342e33393420306c2d31342e38363420382e36353561342e323520342e32352030203020302d312e36323520312e35393520342e32373320342e3237332030203020302d2e35373220322e3230387631372e34343161342e323720342e3237203020302030202e35373220322e32303820342e323520342e323520302030203020312e36323520312e3539356c31342e38363420382e36353561342e33383220342e33383220302030203020342e33393420306c31302e3038312d352e39303120362e38352d342e3036352031302e3038312d352e39303161342e33383220342e33383220302030203120342e33393420306c372e38383420342e353961342e353220342e353220302030203120312e35383920312e36313620342e353420342e3534203020302031202e36303820322e31383776392e33313161342e323720342e32372030203020312d2e35373220322e32303820342e323520342e32352030203020312d312e36323520312e3539356c2d372e38383420342e37323161342e33383220342e3338322030203020312d342e33393420306c2d372e3838342d342e353961342e353220342e35322030203020312d312e3538392d312e36313620342e353320342e35332030203020312d2e3630382d322e313837762d362e3033326c2d362e383520342e30363576362e30333261342e323720342e3237203020302030202e35373220322e32303820342e323520342e323520302030203020312e36323520312e3539356c31342e38363420382e36353561342e33383220342e33383220302030203020342e33393420306c31342e3836342d382e36353561342e35343520342e35343520302030203020322e3139382d332e3830335635352e35333861342e323720342e32372030203020302d2e3537322d322e32303820342e323520342e32352030203020302d312e3632352d312e3539356c2d31342e3939332d382e3738367a222066696c6c3d2223666666222f3e3c646566733e3c6c696e6561724772616469656e742069643d2261222078313d22313230222079313d223530222078323d22323030222079323d2232303022206772616469656e74556e6974733d227573657253706163654f6e557365223e3c73746f702073746f702d636f6c6f723d2223636235656565222f3e3c73746f70206f66667365743d2231222073746f702d636f6c6f723d2223306364376534222073746f702d6f7061636974793d222e39222f3e3c2f6c696e6561724772616469656e743e3c2f646566733e3c7465787420783d2233322e352220793d223233312220666f6e742d73697a653d223237222066696c6c3d2223666666222066696c7465723d2275726c282362292220666f6e742d66616d696c793d22506c7573204a616b617274612053616e732c44656a6156752053616e732c4e6f746f20436f6c6f7220456d6f6a692c4170706c6520436f6c6f7220456d6f6a692c73616e732d73657269662220666f6e742d7765696768743d22626f6c64223e",
  "linkReferences": {},
  "deployedLinkReferences": {}
}