{
  "_format": "hh-sol-artifact-1",
  "contractName": "Domains",
  "sourceName": "contracts/Domains.sol",
  "abi": [
    {
      "inputs": [
        {
          "internalType": "string",
          "name": "_tld",
          "type": "string"
        }
      ],
      "stateMutability": "payable",
      "type": "constructor"
    },
    {
      "inputs": [],
      "name": "AlreadyRegistered",
      "type": "error"
    },
    {
      "inputs": [
        {
          "internalType": "string",
          "name": "name",
          "type": "string"
        }
      ],
      "name": "InvalidName",
      "type": "error"
    },
    {
      "inputs": [],
      "name": "Unauthorized",
      "type": "error"
    },
    {
      "anonymous": false,
      "inputs": [
        {
          "indexed": true,
          "internalType": "address",
          "name": "owner",
          "type": "address"
        },
        {
          "indexed": true,
          "internalType": "address",
          "name": "approved",
          "type": "address"
        },
        {
          "indexed": true,
          "internalType": "uint256",
          "name": "tokenId",
          "type": "uint256"
        }
      ],
      "name": "Approval",
      "type": "event"
    },
    {
      "anonymous": false,
      "inputs": [
        {
          "indexed": true,
          "internalType": "address",
          "name": "owner",
          "type": "address"
        },
        {
          "indexed": true,
          "internalType": "address",
          "name": "operator",
          "type": "address"
        },
        {
          "indexed": false,
          "internalType": "bool",
          "name": "approved",
          "type": "bool"
        }
      ],
      "name": "ApprovalForAll",
      "type": "event"
    },
    {
      "anonymous": false,
      "inputs": [
        {
          "indexed": true,
          "internalType": "address",
          "name": "from",
          "type": "address"
        },
        {
          "indexed": true,
          "internalType": "address",
          "name": "to",
          "type": "address"
        },
        {
          "indexed": true,
          "internalType": "uint256",
          "name": "tokenId",
          "type": "uint256"
        }
      ],
      "name": "Transfer",
      "type": "event"
    },
    {
      "inputs": [
        {
          "internalType": "address",
          "name": "to",
          "type": "address"
        },
        {
          "internalType": "uint256",
          "name": "tokenId",
          "type": "uint256"
        }
      ],
      "name": "approve",
      "outputs": [],
      "stateMutability": "nonpayable",
      "type": "function"
    },
    {
      "inputs": [
        {
          "internalType": "address",
          "name": "owner",
          "type": "address"
        }
      ],
      "name": "balanceOf",
      "outputs": [
        {
          "internalType": "uint256",
          "name": "",
          "type": "uint256"
        }
      ],
      "stateMutability": "view",
      "type": "function"
    },
    {
      "inputs": [
        {
          "internalType": "string",
          "name": "",
          "type": "string"
        }
      ],
      "name": "domains",
      "outputs": [
        {
          "internalType": "address",
          "name": "",
          "type": "address"
        }
      ],
      "stateMutability": "view",
      "type": "function"
    },
    {
      "inputs": [
        {
          "internalType": "string",
          "name": "name",
          "type": "string"
        }
      ],
      "name": "getAddress",
      "outputs": [
        {
          "internalType": "address",
          "name": "",
          "type": "address"
        }
      ],
      "stateMutability": "view",
      "type": "function"
    },
    {
      "inputs": [
        {
          "internalType": "uint256",
          "name": "tokenId",
          "type": "uint256"
        }
      ],
      "name": "getApproved",
      "outputs": [
        {
          "internalType": "address",
          "name": "",
          "type": "address"
        }
      ],
      "stateMutability": "view",
      "type": "function"
    },
    {
      "inputs": [],
      "name": "getNames",
      "outputs": [
        {
          "internalType": "string[]",
          "name": "theNames",
          "type": "string[]"
        }
      ],
      "stateMutability": "view",
      "type": "function"
    },
    {
      "inputs": [
        {
          "internalType": "string",
          "name": "name",
          "type": "string"
        }
      ],
      "name": "getRecord",
      "outputs": [
        {
          "internalType": "string",
          "name": "",
          "type": "string"
        }
      ],
      "stateMutability": "view",
      "type": "function"
    },
    {
      "inputs": [
        {
          "internalType": "address",
          "name": "owner",
          "type": "address"
        },
        {
          "internalType": "address",
          "name": "operator",
          "type": "address"
        }
      ],
      "name": "isApprovedForAll",
      "outputs": [
        {
          "internalType": "bool",
          "name": "",
          "type": "bool"
        }
      ],
      "stateMutability": "view",
      "type": "function"
    },
    {
      "inputs": [],
      "name": "isOwner",
      "outputs": [
        {
          "internalType": "bool",
          "name": "",
          "type": "bool"
        }
      ],
      "stateMutability": "view",
      "type": "function"
    },
    {
      "inputs": [],
      "name": "name",
      "outputs": [
        {
          "internalType": "string",
          "name": "",
          "type": "string"
        }
      ],
      "stateMutability": "view",
      "type": "function"
    },
    {
      "inputs": [
        {
          "internalType": "uint256",
          "name": "",
          "type": "uint256"
        }
      ],
      "name": "names",
      "outputs": [
        {
          "internalType": "string",
          "name": "",
          "type": "string"
        }
      ],
      "stateMutability": "view",
      "type": "function"
    },
    {
      "inputs": [],
      "name": "owner",
      "outputs": [
        {
          "internalType": "address payable",
          "name": "",
          "type": "address"
        }
      ],
      "stateMutability": "view",
      "type": "function"
    },
    {
      "inputs": [
        {
          "internalType": "uint256",
          "name": "tokenId",
          "type": "uint256"
        }
      ],
      "name": "ownerOf",
      "outputs": [
        {
          "internalType": "address",
          "name": "",
          "type": "address"
        }
      ],
      "stateMutability": "view",
      "type": "function"
    },
    {
      "inputs": [
        {
          "internalType": "string",
          "name": "name",
          "type": "string"
        }
      ],
      "name": "price",
      "outputs": [
        {
          "internalType": "uint256",
          "name": "",
          "type": "uint256"
        }
      ],
      "stateMutability": "pure",
      "type": "function"
    },
    {
      "inputs": [
        {
          "internalType": "string",
          "name": "",
          "type": "string"
        }
      ],
      "name": "records",
      "outputs": [
        {
          "internalType": "string",
          "name": "",
          "type": "string"
        }
      ],
      "stateMutability": "view",
      "type": "function"
    },
    {
      "inputs": [
        {
          "internalType": "string",
          "name": "name",
          "type": "string"
        }
      ],
      "name": "register",
      "outputs": [],
      "stateMutability": "payable",
      "type": "function"
    },
    {
      "inputs": [
        {
          "internalType": "address",
          "name": "from",
          "type": "address"
        },
        {
          "internalType": "address",
          "name": "to",
          "type": "address"
        },
        {
          "internalType": "uint256",
          "name": "tokenId",
          "type": "uint256"
        }
      ],
      "name": "safeTransferFrom",
      "outputs": [],
      "stateMutability": "nonpayable",
      "type": "function"
    },
    {
      "inputs": [
        {
          "internalType": "address",
          "name": "from",
          "type": "address"
        },
        {
          "internalType": "address",
          "name": "to",
          "type": "address"
        },
        {
          "internalType": "uint256",
          "name": "tokenId",
          "type": "uint256"
        },
        {
          "internalType": "bytes",
          "name": "_data",
          "type": "bytes"
        }
      ],
      "name": "safeTransferFrom",
      "outputs": [],
      "stateMutability": "nonpayable",
      "type": "function"
    },
    {
      "inputs": [
        {
          "internalType": "address",
          "name": "operator",
          "type": "address"
        },
        {
          "internalType": "bool",
          "name": "approved",
          "type": "bool"
        }
      ],
      "name": "setApprovalForAll",
      "outputs": [],
      "stateMutability": "nonpayable",
      "type": "function"
    },
    {
      "inputs": [
        {
          "internalType": "string",
          "name": "name",
          "type": "string"
        },
        {
          "internalType": "string",
          "name": "record",
          "type": "string"
        }
      ],
      "name": "setRecord",
      "outputs": [],
      "stateMutability": "nonpayable",
      "type": "function"
    },
    {
      "inputs": [
        {
          "internalType": "bytes4",
          "name": "interfaceId",
          "type": "bytes4"
        }
      ],
      "name": "supportsInterface",
      "outputs": [
        {
          "internalType": "bool",
          "name": "",
          "type": "bool"
        }
      ],
      "stateMutability": "view",
      "type": "function"
    },
    {
      "inputs": [
        {
          "internalType": "string",
          "name": "",
          "type": "string"
        }
      ],
      "name": "svg",
      "outputs": [
        {
          "internalType": "string",
          "name": "",
          "type": "string"
        }
      ],
      "stateMutability": "view",
      "type": "function"
    },
    {
      "inputs": [],
      "name": "symbol",
      "outputs": [
        {
          "internalType": "string",
          "name": "",
          "type": "string"
        }
      ],
      "stateMutability": "view",
      "type": "function"
    },
    {
      "inputs": [],
      "name": "tld",
      "outputs": [
        {
          "internalType": "string",
          "name": "",
          "type": "string"
        }
      ],
      "stateMutability": "view",
      "type": "function"
    },
    {
      "inputs": [
        {
          "internalType": "uint256",
          "name": "tokenId",
          "type": "uint256"
        }
      ],
      "name": "tokenURI",
      "outputs": [
        {
          "internalType": "string",
          "name": "",
          "type": "string"
        }
      ],
      "stateMutability": "view",
      "type": "function"
    },
    {
      "inputs": [
        {
          "internalType": "address",
          "name": "from",
          "type": "address"
        },
        {
          "internalType": "address",
          "name": "to",
          "type": "address"
        },
        {
          "internalType": "uint256",
          "name": "tokenId",
          "type": "uint256"
        }
      ],
      "name": "transferFrom",
      "outputs": [],
      "stateMutability": "nonpayable",
      "type": "function"
    },
    {
      "inputs": [
        {
          "internalType": "string",
          "name": "name",
          "type": "string"
        }
      ],
      "name": "valid",
      "outputs": [
        {
          "internalType": "bool",
          "name": "",
          "type": "bool"
        }
      ],
      "stateMutability": "pure",
      "type": "function"
    },
    {
      "inputs": [],
      "name": "withdraw",
      "outputs": [],
      "stateMutability": "nonpayable",
      "type": "function"
    }
  ],
  "bytecode": "0x6080604052604051806107a0016040528061076e8152602001620054e561076e9139600e908051906020019062000038929190620002c8565b506040518060400160405280600d81526020017f3c2f746578743e3c2f7376673e00000000000000000000000000000000000000815250600f908051906020019062000086929190620002c8565b5060405162005c5338038062005c538339818101604052810190620000ac919062000515565b6040518060400160405280601281526020017f456d6f6a69204e616d65205365727669636500000000000000000000000000008152506040518060400160405280600381526020017f454e530000000000000000000000000000000000000000000000000000000000815250816000908051906020019062000130929190620002c8565b50806001908051906020019062000149929190620002c8565b50505033600860006101000a81548173ffffffffffffffffffffffffffffffffffffffff021916908373ffffffffffffffffffffffffffffffffffffffff1602179055508060079080519060200190620001a5929190620002c8565b50620001f26040518060400160405280601881526020017f2573206e616d652073657276696365206465706c6f796564000000000000000081525082620001f960201b62001d121760201c565b5062000663565b6200029b828260405160240162000212929190620005c3565b6040516020818303038152906040527f4b5c4277000000000000000000000000000000000000000000000000000000007bffffffffffffffffffffffffffffffffffffffffffffffffffffffff19166020820180517bffffffffffffffffffffffffffffffffffffffffffffffffffffffff83818316178352505050506200029f60201b60201c565b5050565b60008151905060006a636f6e736f6c652e6c6f679050602083016000808483855afa5050505050565b828054620002d6906200062d565b90600052602060002090601f016020900481019282620002fa576000855562000346565b82601f106200031557805160ff191683800117855562000346565b8280016001018555821562000346579182015b828111156200034557825182559160200191906001019062000328565b5b50905062000355919062000359565b5090565b5b80821115620003745760008160009055506001016200035a565b5090565b6000604051905090565b600080fd5b600080fd5b600080fd5b600080fd5b6000601f19601f8301169050919050565b7f4e487b7100000000000000000000000000000000000000000000000000000000600052604160045260246000fd5b620003e18262000396565b810181811067ffffffffffffffff82111715620004035762000402620003a7565b5b80604052505050565b60006200041862000378565b9050620004268282620003d6565b919050565b600067ffffffffffffffff821115620004495762000448620003a7565b5b620004548262000396565b9050602081019050919050565b60005b838110156200048157808201518184015260208101905062000464565b8381111562000491576000848401525b50505050565b6000620004ae620004a8846200042b565b6200040c565b905082815260208101848484011115620004cd57620004cc62000391565b5b620004da84828562000461565b509392505050565b600082601f830112620004fa57620004f96200038c565b5b81516200050c84826020860162000497565b91505092915050565b6000602082840312156200052e576200052d62000382565b5b600082015167ffffffffffffffff8111156200054f576200054e62000387565b5b6200055d84828501620004e2565b91505092915050565b600081519050919050565b600082825260208201905092915050565b60006200058f8262000566565b6200059b818562000571565b9350620005ad81856020860162000461565b620005b88162000396565b840191505092915050565b60006040820190508181036000830152620005df818562000582565b90508181036020830152620005f5818462000582565b90509392505050565b7f4e487b7100000000000000000000000000000000000000000000000000000000600052602260045260246000fd5b600060028204905060018216806200064657607f821691505b602082108114156200065d576200065c620005fe565b5b50919050565b614e7280620006736000396000f3fe6080604052600436106101b75760003560e01c806370a08231116100ec578063bf40fac11161008a578063cd838f0f11610064578063cd838f0f1461067c578063e985e9c5146106a7578063f2c298be146106e4578063fe2c619814610700576101b7565b8063bf40fac1146105d9578063c1880a9814610616578063c87b56dd1461063f576101b7565b806395d89b41116100c657806395d89b411461051f5780639791c0971461054a578063a22cb46514610587578063b88d4fde146105b0576101b7565b806370a082311461048c5780638da5cb5b146104c95780638f32d59b146104f4576101b7565b8063264492351161015957806342842e0e1161013357806342842e0e146103ac5780634622ab03146103d5578063541e771d146104125780636352211e1461044f576101b7565b8063264492351461032d5780632d5514321461036a5780633ccfd60b14610395576101b7565b8063095ea7b311610195578063095ea7b31461026157806310633aef1461028a57806311dd8845146102c757806323b872dd14610304576101b7565b806301ffc9a7146101bc57806306fdde03146101f9578063081812fc14610224575b600080fd5b3480156101c857600080fd5b506101e360048036038101906101de9190613206565b61073d565b6040516101f0919061324e565b60405180910390f35b34801561020557600080fd5b5061020e61081f565b60405161021b9190613302565b60405180910390f35b34801561023057600080fd5b5061024b6004803603810190610246919061335a565b6108b1565b60405161025891906133c8565b60405180910390f35b34801561026d57600080fd5b506102886004803603810190610283919061340f565b610936565b005b34801561029657600080fd5b506102b160048036038101906102ac9190613584565b610a4e565b6040516102be9190613302565b60405180910390f35b3480156102d357600080fd5b506102ee60048036038101906102e9919061362d565b610b04565b6040516102fb9190613302565b60405180910390f35b34801561031057600080fd5b5061032b6004803603810190610326919061367a565b610bb7565b005b34801561033957600080fd5b50610354600480360381019061034f9190613584565b610c17565b60405161036191906133c8565b60405180910390f35b34801561037657600080fd5b5061037f610c60565b60405161038c9190613302565b60405180910390f35b3480156103a157600080fd5b506103aa610cee565b005b3480156103b857600080fd5b506103d360048036038101906103ce919061367a565b610db4565b005b3480156103e157600080fd5b506103fc60048036038101906103f7919061335a565b610dd4565b6040516104099190613302565b60405180910390f35b34801561041e57600080fd5b5061043960048036038101906104349190613584565b610e74565b6040516104469190613302565b60405180910390f35b34801561045b57600080fd5b506104766004803603810190610471919061335a565b610f2a565b60405161048391906133c8565b60405180910390f35b34801561049857600080fd5b506104b360048036038101906104ae91906136cd565b610fdc565b6040516104c09190613709565b60405180910390f35b3480156104d557600080fd5b506104de611094565b6040516104eb9190613745565b60405180910390f35b34801561050057600080fd5b506105096110ba565b604051610516919061324e565b60405180910390f35b34801561052b57600080fd5b50610534611112565b6040516105419190613302565b60405180910390f35b34801561055657600080fd5b50610571600480360381019061056c919061362d565b6111a4565b60405161057e919061324e565b60405180910390f35b34801561059357600080fd5b506105ae60048036038101906105a9919061378c565b611258565b005b3480156105bc57600080fd5b506105d760048036038101906105d2919061386d565b61126e565b005b3480156105e557600080fd5b5061060060048036038101906105fb919061362d565b6112d0565b60405161060d91906133c8565b60405180910390f35b34801561062257600080fd5b5061063d600480360381019061063891906138f0565b61131b565b005b34801561064b57600080fd5b506106666004803603810190610661919061335a565b6113f6565b6040516106739190613302565b60405180910390f35b34801561068857600080fd5b50610691611548565b60405161069e9190613a7d565b60405180910390f35b3480156106b357600080fd5b506106ce60048036038101906106c99190613a9f565b6116e8565b6040516106db919061324e565b60405180910390f35b6106fe60048036038101906106f9919061362d565b61177c565b005b34801561070c57600080fd5b506107276004803603810190610722919061362d565b611c73565b6040516107349190613709565b60405180910390f35b60007f80ac58cd000000000000000000000000000000000000000000000000000000007bffffffffffffffffffffffffffffffffffffffffffffffffffffffff1916827bffffffffffffffffffffffffffffffffffffffffffffffffffffffff1916148061080857507f5b5e139f000000000000000000000000000000000000000000000000000000007bffffffffffffffffffffffffffffffffffffffffffffffffffffffff1916827bffffffffffffffffffffffffffffffffffffffffffffffffffffffff1916145b80610818575061081782611dae565b5b9050919050565b60606000805461082e90613b0e565b80601f016020809104026020016040519081016040528092919081815260200182805461085a90613b0e565b80156108a75780601f1061087c576101008083540402835291602001916108a7565b820191906000526020600020905b81548152906001019060200180831161088a57829003601f168201915b5050505050905090565b60006108bc82611e18565b6108fb576040517f08c379a00000000000000000000000000000000000000000000000000000000081526004016108f290613bb2565b60405180910390fd5b6004600083815260200190815260200160002060009054906101000a900473ffffffffffffffffffffffffffffffffffffffff169050919050565b600061094182610f2a565b90508073ffffffffffffffffffffffffffffffffffffffff168373ffffffffffffffffffffffffffffffffffffffff1614156109b2576040517f08c379a00000000000000000000000000000000000000000000000000000000081526004016109a990613c44565b60405180910390fd5b8073ffffffffffffffffffffffffffffffffffffffff166109d1611e84565b73ffffffffffffffffffffffffffffffffffffffff161480610a0057506109ff816109fa611e84565b6116e8565b5b610a3f576040517f08c379a0000000000000000000000000000000000000000000000000000000008152600401610a3690613cd6565b60405180910390fd5b610a498383611e8c565b505050565b600a818051602081018201805184825260208301602085012081835280955050505050506000915090508054610a8390613b0e565b80601f0160208091040260200160405190810160405280929190818152602001828054610aaf90613b0e565b8015610afc5780601f10610ad157610100808354040283529160200191610afc565b820191906000526020600020905b815481529060010190602001808311610adf57829003601f168201915b505050505081565b6060600b8383604051610b18929190613d26565b90815260200160405180910390208054610b3190613b0e565b80601f0160208091040260200160405190810160405280929190818152602001828054610b5d90613b0e565b8015610baa5780601f10610b7f57610100808354040283529160200191610baa565b820191906000526020600020905b815481529060010190602001808311610b8d57829003601f168201915b5050505050905092915050565b610bc8610bc2611e84565b82611f45565b610c07576040517f08c379a0000000000000000000000000000000000000000000000000000000008152600401610bfe90613db1565b60405180910390fd5b610c12838383612023565b505050565b6009818051602081018201805184825260208301602085012081835280955050505050506000915054906101000a900473ffffffffffffffffffffffffffffffffffffffff1681565b60078054610c6d90613b0e565b80601f0160208091040260200160405190810160405280929190818152602001828054610c9990613b0e565b8015610ce65780601f10610cbb57610100808354040283529160200191610ce6565b820191906000526020600020905b815481529060010190602001808311610cc957829003601f168201915b505050505081565b610cf66110ba565b610cff57600080fd5b600047905060003373ffffffffffffffffffffffffffffffffffffffff1682604051610d2a90613e02565b60006040518083038185875af1925050503d8060008114610d67576040519150601f19603f3d011682016040523d82523d6000602084013e610d6c565b606091505b5050905080610db0576040517f08c379a0000000000000000000000000000000000000000000000000000000008152600401610da790613e63565b60405180910390fd5b5050565b610dcf8383836040518060200160405280600081525061126e565b505050565b600c6020528060005260406000206000915090508054610df390613b0e565b80601f0160208091040260200160405190810160405280929190818152602001828054610e1f90613b0e565b8015610e6c5780601f10610e4157610100808354040283529160200191610e6c565b820191906000526020600020905b815481529060010190602001808311610e4f57829003601f168201915b505050505081565b600b818051602081018201805184825260208301602085012081835280955050505050506000915090508054610ea990613b0e565b80601f0160208091040260200160405190810160405280929190818152602001828054610ed590613b0e565b8015610f225780601f10610ef757610100808354040283529160200191610f22565b820191906000526020600020905b815481529060010190602001808311610f0557829003601f168201915b505050505081565b6000806002600084815260200190815260200160002060009054906101000a900473ffffffffffffffffffffffffffffffffffffffff169050600073ffffffffffffffffffffffffffffffffffffffff168173ffffffffffffffffffffffffffffffffffffffff161415610fd3576040517f08c379a0000000000000000000000000000000000000000000000000000000008152600401610fca90613ef5565b60405180910390fd5b80915050919050565b60008073ffffffffffffffffffffffffffffffffffffffff168273ffffffffffffffffffffffffffffffffffffffff16141561104d576040517f08c379a000000000000000000000000000000000000000000000000000000000815260040161104490613f87565b60405180910390fd5b600360008373ffffffffffffffffffffffffffffffffffffffff1673ffffffffffffffffffffffffffffffffffffffff168152602001908152602001600020549050919050565b600860009054906101000a900473ffffffffffffffffffffffffffffffffffffffff1681565b6000600860009054906101000a900473ffffffffffffffffffffffffffffffffffffffff1673ffffffffffffffffffffffffffffffffffffffff163373ffffffffffffffffffffffffffffffffffffffff1614905090565b60606001805461112190613b0e565b80601f016020809104026020016040519081016040528092919081815260200182805461114d90613b0e565b801561119a5780601f1061116f5761010080835404028352916020019161119a565b820191906000526020600020905b81548152906001019060200180831161117d57829003601f168201915b5050505050905090565b600060036111f584848080601f016020809104026020016040519081016040528093929190818152602001838380828437600081840152601f19601f8201169050808301925050505050505061228a565b101580156112505750600a61124d84848080601f016020809104026020016040519081016040528093929190818152602001838380828437600081840152601f19601f8201169050808301925050505050505061228a565b11155b905092915050565b61126a611263611e84565b838361243f565b5050565b61127f611279611e84565b83611f45565b6112be576040517f08c379a00000000000000000000000000000000000000000000000000000000081526004016112b590613db1565b60405180910390fd5b6112ca848484846125ac565b50505050565b6000600983836040516112e4929190613d26565b908152602001604051809103902060009054906101000a900473ffffffffffffffffffffffffffffffffffffffff16905092915050565b6009848460405161132d929190613d26565b908152602001604051809103902060009054906101000a900473ffffffffffffffffffffffffffffffffffffffff1673ffffffffffffffffffffffffffffffffffffffff163373ffffffffffffffffffffffffffffffffffffffff16146113c0576040517f82b4290000000000000000000000000000000000000000000000000000000000815260040160405180910390fd5b8181600b86866040516113d4929190613d26565b908152602001604051809103902091906113ef929190613071565b5050505050565b606061140182611e18565b611440576040517f08c379a000000000000000000000000000000000000000000000000000000000815260040161143790614019565b60405180910390fd5b600060066000848152602001908152602001600020805461146090613b0e565b80601f016020809104026020016040519081016040528092919081815260200182805461148c90613b0e565b80156114d95780601f106114ae576101008083540402835291602001916114d9565b820191906000526020600020905b8154815290600101906020018083116114bc57829003601f168201915b5050505050905060006114ea612608565b9050600081511415611500578192505050611543565b60008251111561153557808260405160200161151d92919061406a565b60405160208183030381529060405292505050611543565b61153e8461261f565b925050505b919050565b60606000611556600d6126c6565b67ffffffffffffffff81111561156f5761156e613459565b5b6040519080825280602002602001820160405280156115a257816020015b606081526020019060019003908161158d5790505b50905060005b6115b2600d6126c6565b8110156116e057600c600082815260200190815260200160002080546115d790613b0e565b80601f016020809104026020016040519081016040528092919081815260200182805461160390613b0e565b80156116505780601f1061162557610100808354040283529160200191611650565b820191906000526020600020905b81548152906001019060200180831161163357829003601f168201915b50505050508282815181106116685761166761408e565b5b60200260200101819052506116cd6040518060400160405280601781526020017f4e616d6520666f7220746f6b656e202564206973202573000000000000000000815250828484815181106116c0576116bf61408e565b5b60200260200101516126d4565b80806116d8906140ec565b9150506115a8565b508091505090565b6000600560008473ffffffffffffffffffffffffffffffffffffffff1673ffffffffffffffffffffffffffffffffffffffff16815260200190815260200160002060008373ffffffffffffffffffffffffffffffffffffffff1673ffffffffffffffffffffffffffffffffffffffff16815260200190815260200160002060009054906101000a900460ff16905092915050565b600073ffffffffffffffffffffffffffffffffffffffff16600983836040516117a6929190613d26565b908152602001604051809103902060009054906101000a900473ffffffffffffffffffffffffffffffffffffffff1673ffffffffffffffffffffffffffffffffffffffff16146117f557600080fd5b600073ffffffffffffffffffffffffffffffffffffffff166009838360405161181f929190613d26565b908152602001604051809103902060009054906101000a900473ffffffffffffffffffffffffffffffffffffffff1673ffffffffffffffffffffffffffffffffffffffff161461189b576040517f3a81d6fc00000000000000000000000000000000000000000000000000000000815260040160405180910390fd5b6118a582826111a4565b6118e85781816040517f7f19f48d0000000000000000000000000000000000000000000000000000000081526004016118df929190614162565b60405180910390fd5b60006118f48383611c73565b905080341015611939576040517f08c379a0000000000000000000000000000000000000000000000000000000008152600401611930906141d2565b60405180910390fd5b600083836007604051602001611951939291906142d2565b60405160208183030381529060405290506000600e82600f60405160200161197b93929190614303565b60405160208183030381529060405290506000611998600d6126c6565b905060006119e987878080601f016020809104026020016040519081016040528093929190818152602001838380828437600081840152601f19601f8201169050808301925050505050505061228a565b905060006119f682612773565b9050611aea604051806060016040528060318152602001614d936031913989898080601f016020809104026020016040519081016040528093929190818152602001838380828437600081840152601f19601f8201169050808301925050505050505060078054611a6690613b0e565b80601f0160208091040260200160405190810160405280929190818152602001828054611a9290613b0e565b8015611adf5780601f10611ab457610100808354040283529160200191611adf565b820191906000526020600020905b815481529060010190602001808311611ac257829003601f168201915b5050505050866128d4565b6000611b2086611af987612976565b84604051602001611b0c939291906144b0565b604051602081830303815290604052612976565b9050600081604051602001611b359190614559565b6040516020818303038152906040529050611b67604051806060016040528060398152602001614d5a60399139612b0e565b611ba66040518060400160405280600e81526020017f46696e616c20746f6b656e55524900000000000000000000000000000000000081525082611d12565b611bc7604051806060016040528060398152602001614dc460399139612b0e565b611bd13386612ba7565b611bdb8582612bc5565b3360098b8b604051611bee929190613d26565b908152602001604051809103902060006101000a81548173ffffffffffffffffffffffffffffffffffffffff021916908373ffffffffffffffffffffffffffffffffffffffff1602179055508989600c60008881526020019081526020016000209190611c5c929190613071565b50611c67600d612c39565b50505050505050505050565b600080611cc384848080601f016020809104026020016040519081016040528093929190818152602001838380828437600081840152601f19601f8201169050808301925050505050505061228a565b905060008111611cd257600080fd5b6003811415611ce957640ba43b7400915050611d0c565b600a811415611d0257660110d9316ec000915050611d0c565b6402540be4009150505b92915050565b611daa8282604051602401611d2892919061457b565b6040516020818303038152906040527f4b5c4277000000000000000000000000000000000000000000000000000000007bffffffffffffffffffffffffffffffffffffffffffffffffffffffff19166020820180517bffffffffffffffffffffffffffffffffffffffffffffffffffffffff8381831617835250505050612c4f565b5050565b60007f01ffc9a7000000000000000000000000000000000000000000000000000000007bffffffffffffffffffffffffffffffffffffffffffffffffffffffff1916827bffffffffffffffffffffffffffffffffffffffffffffffffffffffff1916149050919050565b60008073ffffffffffffffffffffffffffffffffffffffff166002600084815260200190815260200160002060009054906101000a900473ffffffffffffffffffffffffffffffffffffffff1673ffffffffffffffffffffffffffffffffffffffff1614159050919050565b600033905090565b816004600083815260200190815260200160002060006101000a81548173ffffffffffffffffffffffffffffffffffffffff021916908373ffffffffffffffffffffffffffffffffffffffff160217905550808273ffffffffffffffffffffffffffffffffffffffff16611eff83610f2a565b73ffffffffffffffffffffffffffffffffffffffff167f8c5be1e5ebec7d5bd14f71427d1e84f3dd0314c0f7b2291e5b200ac8c7c3b92560405160405180910390a45050565b6000611f5082611e18565b611f8f576040517f08c379a0000000000000000000000000000000000000000000000000000000008152600401611f8690614624565b60405180910390fd5b6000611f9a83610f2a565b90508073ffffffffffffffffffffffffffffffffffffffff168473ffffffffffffffffffffffffffffffffffffffff16148061200957508373ffffffffffffffffffffffffffffffffffffffff16611ff1846108b1565b73ffffffffffffffffffffffffffffffffffffffff16145b8061201a575061201981856116e8565b5b91505092915050565b8273ffffffffffffffffffffffffffffffffffffffff1661204382610f2a565b73ffffffffffffffffffffffffffffffffffffffff1614612099576040517f08c379a0000000000000000000000000000000000000000000000000000000008152600401612090906146b6565b60405180910390fd5b600073ffffffffffffffffffffffffffffffffffffffff168273ffffffffffffffffffffffffffffffffffffffff161415612109576040517f08c379a000000000000000000000000000000000000000000000000000000000815260040161210090614748565b60405180910390fd5b612114838383612c78565b61211f600082611e8c565b6001600360008573ffffffffffffffffffffffffffffffffffffffff1673ffffffffffffffffffffffffffffffffffffffff168152602001908152602001600020600082825461216f9190614768565b925050819055506001600360008473ffffffffffffffffffffffffffffffffffffffff1673ffffffffffffffffffffffffffffffffffffffff16815260200190815260200160002060008282546121c6919061479c565b92505081905550816002600083815260200190815260200160002060006101000a81548173ffffffffffffffffffffffffffffffffffffffff021916908373ffffffffffffffffffffffffffffffffffffffff160217905550808273ffffffffffffffffffffffffffffffffffffffff168473ffffffffffffffffffffffffffffffffffffffff167fddf252ad1be2c89b69c2b068fc378daa952ba7f163c4a11628f55a4df523b3ef60405160405180910390a4612285838383612c7d565b505050565b60008060008084519050600092505b808210156124345760008583815181106122b6576122b561408e565b5b602001015160f81c60f81b9050608060f81b817effffffffffffffffffffffffffffffffffffffffffffffffffffffffffffff19161015612305576001836122fe919061479c565b9250612420565b60e060f81b817effffffffffffffffffffffffffffffffffffffffffffffffffffffffffffff1916101561234757600283612340919061479c565b925061241f565b60f060f81b817effffffffffffffffffffffffffffffffffffffffffffffffffffffffffffff1916101561238957600383612382919061479c565b925061241e565b60f8801b817effffffffffffffffffffffffffffffffffffffffffffffffffffffffffffff191610156123ca576004836123c3919061479c565b925061241d565b60fc60f81b817effffffffffffffffffffffffffffffffffffffffffffffffffffffffffffff1916101561240c57600583612405919061479c565b925061241c565b600683612419919061479c565b92505b5b5b5b5b50828061242c906140ec565b935050612299565b829350505050919050565b8173ffffffffffffffffffffffffffffffffffffffff168373ffffffffffffffffffffffffffffffffffffffff1614156124ae576040517f08c379a00000000000000000000000000000000000000000000000000000000081526004016124a59061483e565b60405180910390fd5b80600560008573ffffffffffffffffffffffffffffffffffffffff1673ffffffffffffffffffffffffffffffffffffffff16815260200190815260200160002060008473ffffffffffffffffffffffffffffffffffffffff1673ffffffffffffffffffffffffffffffffffffffff16815260200190815260200160002060006101000a81548160ff0219169083151502179055508173ffffffffffffffffffffffffffffffffffffffff168373ffffffffffffffffffffffffffffffffffffffff167f17307eab39ab6107e8899845ad3d59bd9653f200f220920489ca2b5937696c318360405161259f919061324e565b60405180910390a3505050565b6125b7848484612023565b6125c384848484612c82565b612602576040517f08c379a00000000000000000000000000000000000000000000000000000000081526004016125f9906148d0565b60405180910390fd5b50505050565b606060405180602001604052806000815250905090565b606061262a82611e18565b612669576040517f08c379a000000000000000000000000000000000000000000000000000000000815260040161266090614962565b60405180910390fd5b6000612673612608565b9050600081511161269357604051806020016040528060008152506126be565b8061269d84612773565b6040516020016126ae92919061406a565b6040516020818303038152906040525b915050919050565b600081600001549050919050565b61276e8383836040516024016126ec93929190614982565b6040516020818303038152906040527fa3f5c739000000000000000000000000000000000000000000000000000000007bffffffffffffffffffffffffffffffffffffffffffffffffffffffff19166020820180517bffffffffffffffffffffffffffffffffffffffffffffffffffffffff8381831617835250505050612c4f565b505050565b606060008214156127bb576040518060400160405280600181526020017f300000000000000000000000000000000000000000000000000000000000000081525090506128cf565b600082905060005b600082146127ed5780806127d6906140ec565b915050600a826127e691906149f6565b91506127c3565b60008167ffffffffffffffff81111561280957612808613459565b5b6040519080825280601f01601f19166020018201604052801561283b5781602001600182028036833780820191505090505b5090505b600085146128c8576001826128549190614768565b9150600a856128639190614a27565b603061286f919061479c565b60f81b8183815181106128855761288461408e565b5b60200101907effffffffffffffffffffffffffffffffffffffffffffffffffffffffffffff1916908160001a905350600a856128c191906149f6565b945061283f565b8093505050505b919050565b612970848484846040516024016128ee9493929190614a58565b6040516020818303038152906040527f9fd009f5000000000000000000000000000000000000000000000000000000007bffffffffffffffffffffffffffffffffffffffffffffffffffffffff19166020820180517bffffffffffffffffffffffffffffffffffffffffffffffffffffffff8381831617835250505050612c4f565b50505050565b6060600082519050600081141561299f5760405180602001604052806000815250915050612b09565b600060036002836129b0919061479c565b6129ba91906149f6565b60046129c69190614ab2565b905060006020826129d7919061479c565b67ffffffffffffffff8111156129f0576129ef613459565b5b6040519080825280601f01601f191660200182016040528015612a225781602001600182028036833780820191505090505b5090506000604051806060016040528060408152602001614dfd604091399050600181016020830160005b86811015612ac65760038101905062ffffff818a015116603f8160121c168401518060081b905060ff603f83600c1c1686015116810190508060081b905060ff603f8360061c1686015116810190508060081b905060ff603f831686015116810190508060e01b90508084526004840193505050612a4d565b506003860660018114612ae05760028114612af057612afb565b613d3d60f01b6002830352612afb565b603d60f81b60018303525b508484525050819450505050505b919050565b612ba481604051602401612b229190613302565b6040516020818303038152906040527f41304fac000000000000000000000000000000000000000000000000000000007bffffffffffffffffffffffffffffffffffffffffffffffffffffffff19166020820180517bffffffffffffffffffffffffffffffffffffffffffffffffffffffff8381831617835250505050612c4f565b50565b612bc1828260405180602001604052806000815250612e19565b5050565b612bce82611e18565b612c0d576040517f08c379a0000000000000000000000000000000000000000000000000000000008152600401612c0490614b7e565b60405180910390fd5b80600660008481526020019081526020016000209080519060200190612c349291906130f7565b505050565b6001816000016000828254019250508190555050565b60008151905060006a636f6e736f6c652e6c6f679050602083016000808483855afa5050505050565b505050565b505050565b6000612ca38473ffffffffffffffffffffffffffffffffffffffff16612e74565b15612e0c578373ffffffffffffffffffffffffffffffffffffffff1663150b7a02612ccc611e84565b8786866040518563ffffffff1660e01b8152600401612cee9493929190614bf3565b602060405180830381600087803b158015612d0857600080fd5b505af1925050508015612d3957506040513d601f19601f82011682018060405250810190612d369190614c54565b60015b612dbc573d8060008114612d69576040519150601f19603f3d011682016040523d82523d6000602084013e612d6e565b606091505b50600081511415612db4576040517f08c379a0000000000000000000000000000000000000000000000000000000008152600401612dab906148d0565b60405180910390fd5b805181602001fd5b63150b7a0260e01b7bffffffffffffffffffffffffffffffffffffffffffffffffffffffff1916817bffffffffffffffffffffffffffffffffffffffffffffffffffffffff191614915050612e11565b600190505b949350505050565b612e238383612e97565b612e306000848484612c82565b612e6f576040517f08c379a0000000000000000000000000000000000000000000000000000000008152600401612e66906148d0565b60405180910390fd5b505050565b6000808273ffffffffffffffffffffffffffffffffffffffff163b119050919050565b600073ffffffffffffffffffffffffffffffffffffffff168273ffffffffffffffffffffffffffffffffffffffff161415612f07576040517f08c379a0000000000000000000000000000000000000000000000000000000008152600401612efe90614ccd565b60405180910390fd5b612f1081611e18565b15612f50576040517f08c379a0000000000000000000000000000000000000000000000000000000008152600401612f4790614d39565b60405180910390fd5b612f5c60008383612c78565b6001600360008473ffffffffffffffffffffffffffffffffffffffff1673ffffffffffffffffffffffffffffffffffffffff1681526020019081526020016000206000828254612fac919061479c565b92505081905550816002600083815260200190815260200160002060006101000a81548173ffffffffffffffffffffffffffffffffffffffff021916908373ffffffffffffffffffffffffffffffffffffffff160217905550808273ffffffffffffffffffffffffffffffffffffffff16600073ffffffffffffffffffffffffffffffffffffffff167fddf252ad1be2c89b69c2b068fc378daa952ba7f163c4a11628f55a4df523b3ef60405160405180910390a461306d60008383612c7d565b5050565b82805461307d90613b0e565b90600052602060002090601f01602090048101928261309f57600085556130e6565b82601f106130b857803560ff19168380011785556130e6565b828001600101855582156130e6579182015b828111156130e55782358255916020019190600101906130ca565b5b5090506130f3919061317d565b5090565b82805461310390613b0e565b90600052602060002090601f016020900481019282613125576000855561316c565b82601f1061313e57805160ff191683800117855561316c565b8280016001018555821561316c579182015b8281111561316b578251825591602001919060010190613150565b5b509050613179919061317d565b5090565b5b8082111561319657600081600090555060010161317e565b5090565b6000604051905090565b600080fd5b600080fd5b60007fffffffff0000000000000000000000000000000000000000000000000000000082169050919050565b6131e3816131ae565b81146131ee57600080fd5b50565b600081359050613200816131da565b92915050565b60006020828403121561321c5761321b6131a4565b5b600061322a848285016131f1565b91505092915050565b60008115159050919050565b61324881613233565b82525050565b6000602082019050613263600083018461323f565b92915050565b600081519050919050565b600082825260208201905092915050565b60005b838110156132a3578082015181840152602081019050613288565b838111156132b2576000848401525b50505050565b6000601f19601f8301169050919050565b60006132d482613269565b6132de8185613274565b93506132ee818560208601613285565b6132f7816132b8565b840191505092915050565b6000602082019050818103600083015261331c81846132c9565b905092915050565b6000819050919050565b61333781613324565b811461334257600080fd5b50565b6000813590506133548161332e565b92915050565b6000602082840312156133705761336f6131a4565b5b600061337e84828501613345565b91505092915050565b600073ffffffffffffffffffffffffffffffffffffffff82169050919050565b60006133b282613387565b9050919050565b6133c2816133a7565b82525050565b60006020820190506133dd60008301846133b9565b92915050565b6133ec816133a7565b81146133f757600080fd5b50565b600081359050613409816133e3565b92915050565b60008060408385031215613426576134256131a4565b5b6000613434858286016133fa565b925050602061344585828601613345565b9150509250929050565b600080fd5b600080fd5b7f4e487b7100000000000000000000000000000000000000000000000000000000600052604160045260246000fd5b613491826132b8565b810181811067ffffffffffffffff821117156134b0576134af613459565b5b80604052505050565b60006134c361319a565b90506134cf8282613488565b919050565b600067ffffffffffffffff8211156134ef576134ee613459565b5b6134f8826132b8565b9050602081019050919050565b82818337600083830152505050565b6000613527613522846134d4565b6134b9565b90508281526020810184848401111561354357613542613454565b5b61354e848285613505565b509392505050565b600082601f83011261356b5761356a61344f565b5b813561357b848260208601613514565b91505092915050565b60006020828403121561359a576135996131a4565b5b600082013567ffffffffffffffff8111156135b8576135b76131a9565b5b6135c484828501613556565b91505092915050565b600080fd5b600080fd5b60008083601f8401126135ed576135ec61344f565b5b8235905067ffffffffffffffff81111561360a576136096135cd565b5b602083019150836001820283011115613626576136256135d2565b5b9250929050565b60008060208385031215613644576136436131a4565b5b600083013567ffffffffffffffff811115613662576136616131a9565b5b61366e858286016135d7565b92509250509250929050565b600080600060608486031215613693576136926131a4565b5b60006136a1868287016133fa565b93505060206136b2868287016133fa565b92505060406136c386828701613345565b9150509250925092565b6000602082840312156136e3576136e26131a4565b5b60006136f1848285016133fa565b91505092915050565b61370381613324565b82525050565b600060208201905061371e60008301846136fa565b92915050565b600061372f82613387565b9050919050565b61373f81613724565b82525050565b600060208201905061375a6000830184613736565b92915050565b61376981613233565b811461377457600080fd5b50565b60008135905061378681613760565b92915050565b600080604083850312156137a3576137a26131a4565b5b60006137b1858286016133fa565b92505060206137c285828601613777565b9150509250929050565b600067ffffffffffffffff8211156137e7576137e6613459565b5b6137f0826132b8565b9050602081019050919050565b600061381061380b846137cc565b6134b9565b90508281526020810184848401111561382c5761382b613454565b5b613837848285613505565b509392505050565b600082601f8301126138545761385361344f565b5b81356138648482602086016137fd565b91505092915050565b60008060008060808587031215613887576138866131a4565b5b6000613895878288016133fa565b94505060206138a6878288016133fa565b93505060406138b787828801613345565b925050606085013567ffffffffffffffff8111156138d8576138d76131a9565b5b6138e48782880161383f565b91505092959194509250565b6000806000806040858703121561390a576139096131a4565b5b600085013567ffffffffffffffff811115613928576139276131a9565b5b613934878288016135d7565b9450945050602085013567ffffffffffffffff811115613957576139566131a9565b5b613963878288016135d7565b925092505092959194509250565b600081519050919050565b600082825260208201905092915050565b6000819050602082019050919050565b600082825260208201905092915050565b60006139b982613269565b6139c3818561399d565b93506139d3818560208601613285565b6139dc816132b8565b840191505092915050565b60006139f383836139ae565b905092915050565b6000602082019050919050565b6000613a1382613971565b613a1d818561397c565b935083602082028501613a2f8561398d565b8060005b85811015613a6b5784840389528151613a4c85826139e7565b9450613a57836139fb565b925060208a01995050600181019050613a33565b50829750879550505050505092915050565b60006020820190508181036000830152613a978184613a08565b905092915050565b60008060408385031215613ab657613ab56131a4565b5b6000613ac4858286016133fa565b9250506020613ad5858286016133fa565b9150509250929050565b7f4e487b7100000000000000000000000000000000000000000000000000000000600052602260045260246000fd5b60006002820490506001821680613b2657607f821691505b60208210811415613b3a57613b39613adf565b5b50919050565b7f4552433732313a20617070726f76656420717565727920666f72206e6f6e657860008201527f697374656e7420746f6b656e0000000000000000000000000000000000000000602082015250565b6000613b9c602c83613274565b9150613ba782613b40565b604082019050919050565b60006020820190508181036000830152613bcb81613b8f565b9050919050565b7f4552433732313a20617070726f76616c20746f2063757272656e74206f776e6560008201527f7200000000000000000000000000000000000000000000000000000000000000602082015250565b6000613c2e602183613274565b9150613c3982613bd2565b604082019050919050565b60006020820190508181036000830152613c5d81613c21565b9050919050565b7f4552433732313a20617070726f76652063616c6c6572206973206e6f74206f7760008201527f6e6572206e6f7220617070726f76656420666f7220616c6c0000000000000000602082015250565b6000613cc0603883613274565b9150613ccb82613c64565b604082019050919050565b60006020820190508181036000830152613cef81613cb3565b9050919050565b600081905092915050565b6000613d0d8385613cf6565b9350613d1a838584613505565b82840190509392505050565b6000613d33828486613d01565b91508190509392505050565b7f4552433732313a207472616e736665722063616c6c6572206973206e6f74206f60008201527f776e6572206e6f7220617070726f766564000000000000000000000000000000602082015250565b6000613d9b603183613274565b9150613da682613d3f565b604082019050919050565b60006020820190508181036000830152613dca81613d8e565b9050919050565b600081905092915050565b50565b6000613dec600083613dd1565b9150613df782613ddc565b600082019050919050565b6000613e0d82613ddf565b9150819050919050565b7f4661696c656420746f207769746864726177204d617469630000000000000000600082015250565b6000613e4d601883613274565b9150613e5882613e17565b602082019050919050565b60006020820190508181036000830152613e7c81613e40565b9050919050565b7f4552433732313a206f776e657220717565727920666f72206e6f6e657869737460008201527f656e7420746f6b656e0000000000000000000000000000000000000000000000602082015250565b6000613edf602983613274565b9150613eea82613e83565b604082019050919050565b60006020820190508181036000830152613f0e81613ed2565b9050919050565b7f4552433732313a2062616c616e636520717565727920666f7220746865207a6560008201527f726f206164647265737300000000000000000000000000000000000000000000602082015250565b6000613f71602a83613274565b9150613f7c82613f15565b604082019050919050565b60006020820190508181036000830152613fa081613f64565b9050919050565b7f45524337323155524953746f726167653a2055524920717565727920666f722060008201527f6e6f6e6578697374656e7420746f6b656e000000000000000000000000000000602082015250565b6000614003603183613274565b915061400e82613fa7565b604082019050919050565b6000602082019050818103600083015261403281613ff6565b9050919050565b600061404482613269565b61404e8185613cf6565b935061405e818560208601613285565b80840191505092915050565b60006140768285614039565b91506140828284614039565b91508190509392505050565b7f4e487b7100000000000000000000000000000000000000000000000000000000600052603260045260246000fd5b7f4e487b7100000000000000000000000000000000000000000000000000000000600052601160045260246000fd5b60006140f782613324565b91507fffffffffffffffffffffffffffffffffffffffffffffffffffffffffffffffff82141561412a576141296140bd565b5b600182019050919050565b60006141418385613274565b935061414e838584613505565b614157836132b8565b840190509392505050565b6000602082019050818103600083015261417d818486614135565b90509392505050565b7f4e6f7420656e6f756768204d6174696320706169640000000000000000000000600082015250565b60006141bc601583613274565b91506141c782614186565b602082019050919050565b600060208201905081810360008301526141eb816141af565b9050919050565b7f2e00000000000000000000000000000000000000000000000000000000000000600082015250565b6000614228600183613cf6565b9150614233826141f2565b600182019050919050565b60008190508160005260206000209050919050565b6000815461426081613b0e565b61426a8186613cf6565b945060018216600081146142855760018114614296576142c9565b60ff198316865281860193506142c9565b61429f8561423e565b60005b838110156142c1578154818901526001820191506020810190506142a2565b838801955050505b50505092915050565b60006142df828587613d01565b91506142ea8261421b565b91506142f68284614253565b9150819050949350505050565b600061430f8286614253565b915061431b8285614039565b91506143278284614253565b9150819050949350505050565b7f7b226e616d65223a202200000000000000000000000000000000000000000000600082015250565b600061436a600a83613cf6565b915061437582614334565b600a82019050919050565b7f222c20226465736372697074696f6e223a20224120646f6d61696e206f6e207460008201527f6865204e696e6a61206e616d652073657276696365222c2022696d616765223a60208201527f2022646174613a696d6167652f7376672b786d6c3b6261736536342c00000000604082015250565b6000614402605c83613cf6565b915061440d82614380565b605c82019050919050565b7f222c226c656e677468223a220000000000000000000000000000000000000000600082015250565b600061444e600c83613cf6565b915061445982614418565b600c82019050919050565b7f227d000000000000000000000000000000000000000000000000000000000000600082015250565b600061449a600283613cf6565b91506144a582614464565b600282019050919050565b60006144bb8261435d565b91506144c78286614039565b91506144d2826143f5565b91506144de8285614039565b91506144e982614441565b91506144f58284614039565b91506145008261448d565b9150819050949350505050565b7f646174613a6170706c69636174696f6e2f6a736f6e3b6261736536342c000000600082015250565b6000614543601d83613cf6565b915061454e8261450d565b601d82019050919050565b600061456482614536565b91506145708284614039565b915081905092915050565b6000604082019050818103600083015261459581856132c9565b905081810360208301526145a981846132c9565b90509392505050565b7f4552433732313a206f70657261746f7220717565727920666f72206e6f6e657860008201527f697374656e7420746f6b656e0000000000000000000000000000000000000000602082015250565b600061460e602c83613274565b9150614619826145b2565b604082019050919050565b6000602082019050818103600083015261463d81614601565b9050919050565b7f4552433732313a207472616e736665722066726f6d20696e636f72726563742060008201527f6f776e6572000000000000000000000000000000000000000000000000000000602082015250565b60006146a0602583613274565b91506146ab82614644565b604082019050919050565b600060208201905081810360008301526146cf81614693565b9050919050565b7f4552433732313a207472616e7366657220746f20746865207a65726f2061646460008201527f7265737300000000000000000000000000000000000000000000000000000000602082015250565b6000614732602483613274565b915061473d826146d6565b604082019050919050565b6000602082019050818103600083015261476181614725565b9050919050565b600061477382613324565b915061477e83613324565b925082821015614791576147906140bd565b5b828203905092915050565b60006147a782613324565b91506147b283613324565b9250827fffffffffffffffffffffffffffffffffffffffffffffffffffffffffffffffff038211156147e7576147e66140bd565b5b828201905092915050565b7f4552433732313a20617070726f766520746f2063616c6c657200000000000000600082015250565b6000614828601983613274565b9150614833826147f2565b602082019050919050565b600060208201905081810360008301526148578161481b565b9050919050565b7f4552433732313a207472616e7366657220746f206e6f6e20455243373231526560008201527f63656976657220696d706c656d656e7465720000000000000000000000000000602082015250565b60006148ba603283613274565b91506148c58261485e565b604082019050919050565b600060208201905081810360008301526148e9816148ad565b9050919050565b7f4552433732314d657461646174613a2055524920717565727920666f72206e6f60008201527f6e6578697374656e7420746f6b656e0000000000000000000000000000000000602082015250565b600061494c602f83613274565b9150614957826148f0565b604082019050919050565b6000602082019050818103600083015261497b8161493f565b9050919050565b6000606082019050818103600083015261499c81866132c9565b90506149ab60208301856136fa565b81810360408301526149bd81846132c9565b9050949350505050565b7f4e487b7100000000000000000000000000000000000000000000000000000000600052601260045260246000fd5b6000614a0182613324565b9150614a0c83613324565b925082614a1c57614a1b6149c7565b5b828204905092915050565b6000614a3282613324565b9150614a3d83613324565b925082614a4d57614a4c6149c7565b5b828206905092915050565b60006080820190508181036000830152614a7281876132c9565b90508181036020830152614a8681866132c9565b90508181036040830152614a9a81856132c9565b9050614aa960608301846136fa565b95945050505050565b6000614abd82613324565b9150614ac883613324565b9250817fffffffffffffffffffffffffffffffffffffffffffffffffffffffffffffffff0483118215151615614b0157614b006140bd565b5b828202905092915050565b7f45524337323155524953746f726167653a2055524920736574206f66206e6f6e60008201527f6578697374656e7420746f6b656e000000000000000000000000000000000000602082015250565b6000614b68602e83613274565b9150614b7382614b0c565b604082019050919050565b60006020820190508181036000830152614b9781614b5b565b9050919050565b600081519050919050565b600082825260208201905092915050565b6000614bc582614b9e565b614bcf8185614ba9565b9350614bdf818560208601613285565b614be8816132b8565b840191505092915050565b6000608082019050614c0860008301876133b9565b614c1560208301866133b9565b614c2260408301856136fa565b8181036060830152614c348184614bba565b905095945050505050565b600081519050614c4e816131da565b92915050565b600060208284031215614c6a57614c696131a4565b5b6000614c7884828501614c3f565b91505092915050565b7f4552433732313a206d696e7420746f20746865207a65726f2061646472657373600082015250565b6000614cb7602083613274565b9150614cc282614c81565b602082019050919050565b60006020820190508181036000830152614ce681614caa565b9050919050565b7f4552433732313a20746f6b656e20616c7265616479206d696e74656400000000600082015250565b6000614d23601c83613274565b9150614d2e82614ced565b602082019050919050565b60006020820190508181036000830152614d5281614d16565b905091905056fe0a2d2d2d2d2d2d2d2d2d2d2d2d2d2d2d2d2d2d2d2d2d2d2d2d2d2d2d2d2d2d2d2d2d2d2d2d2d2d2d2d2d2d2d2d2d2d2d2d2d2d2d2d2d2d2d2d5265676973746572696e672025732e2573206f6e2074686520636f6e7472616374207769746820746f6b656e49442025642d2d2d2d2d2d2d2d2d2d2d2d2d2d2d2d2d2d2d2d2d2d2d2d2d2d2d2d2d2d2d2d2d2d2d2d2d2d2d2d2d2d2d2d2d2d2d2d2d2d2d2d2d2d2d2d0a4142434445464748494a4b4c4d4e4f505152535455565758595a6162636465666768696a6b6c6d6e6f707172737475767778797a303132333435363738392b2fa264697066735822122029259f918e2f3ec1a8b6fe05a789816f5829e96ca0dafc2b6aaf32ba65497c5264736f6c634300080900333c73766720786d6c6e733d22687474703a2f2f7777772e77332e6f72672f323030302f737667222077696474683d2232373022206865696768743d22323730222066696c6c3d226e6f6e65223e3c706174682066696c6c3d2275726c282361292220643d224d302030683237307632373048307a222f3e3c646566733e3c66696c7465722069643d22622220636f6c6f722d696e746572706f6c6174696f6e2d66696c746572733d2273524742222066696c746572556e6974733d227573657253706163654f6e55736522206865696768743d22323730222077696474683d22323730223e3c666544726f70536861646f772064783d2232222064793d22312220737464446576696174696f6e3d22322220666c6f6f642d6f7061636974793d222e33222077696474683d223230302522206865696768743d2232303025222f3e3c2f66696c7465723e3c2f646566733e3c7061746820643d224d37322e3836332034322e39343961342e33383220342e3338322030203020302d342e33393420306c2d31302e30383120362e3033322d362e383520332e3933342d31302e30383120362e30333261342e33383220342e3338322030203020312d342e33393420306c2d382e3031332d342e37323161342e353220342e35322030203020312d312e3538392d312e36313620342e353420342e35342030203020312d2e3630382d322e313837762d392e333161342e323720342e3237203020302031202e3537322d322e32303820342e323520342e323520302030203120312e3632352d312e3539356c372e3838342d342e353961342e33383220342e33383220302030203120342e33393420306c372e38383420342e353961342e353220342e353220302030203120312e35383920312e36313620342e353420342e3534203020302031202e36303820322e31383776362e3033326c362e38352d342e303635762d362e30333261342e323720342e32372030203020302d2e3537322d322e32303820342e323520342e32352030203020302d312e3632352d312e3539354c34312e3435362032342e353961342e33383220342e3338322030203020302d342e33393420306c2d31342e38363420382e36353561342e323520342e32352030203020302d312e36323520312e35393520342e32373320342e3237332030203020302d2e35373220322e3230387631372e34343161342e323720342e3237203020302030202e35373220322e32303820342e323520342e323520302030203020312e36323520312e3539356c31342e38363420382e36353561342e33383220342e33383220302030203020342e33393420306c31302e3038312d352e39303120362e38352d342e3036352031302e3038312d352e39303161342e33383220342e33383220302030203120342e33393420306c372e38383420342e353961342e353220342e353220302030203120312e35383920312e36313620342e353420342e3534203020302031202e36303820322e31383776392e33313161342e323720342e32372030203020312d2e35373220322e32303820342e323520342e32352030203020312d312e36323520312e3539356c2d372e38383420342e37323161342e33383220342e3338322030203020312d342e33393420306c2d372e3838342d342e353961342e353220342e35322030203020312d312e3538392d312e36313620342e353320342e35332030203020312d2e3630382d322e313837762d362e3033326c2d362e383520342e30363576362e30333261342e323720342e3237203020302030202e35373220322e32303820342e323520342e323520302030203020312e36323520312e3539356c31342e38363420382e36353561342e33383220342e33383220302030203020342e33393420306c31342e3836342d382e36353561342e35343520342e35343520302030203020322e3139382d332e3830335635352e35333861342e323720342e32372030203020302d2e3537322d322e32303820342e323520342e32352030203020302d312e3632352d312e3539356c2d31342e3939332d382e3738367a222066696c6c3d2223666666222f3e3c646566733e3c6c696e6561724772616469656e742069643d2261222078313d22313230222079313d223530222078323d22323030222079323d2232303022206772616469656e74556e6974733d227573657253706163654f6e557365223e3c73746f702073746f702d636f6c6f723d2223636235656565222f3e3c73746f70206f66667365743d2231222073746f702d636f6c6f723d2223306364376534222073746f702d6f7061636974793d222e39222f3e3c2f6c696e6561724772616469656e743e3c2f646566733e3c7465787420783d2233322e352220793d223233312220666f6e742d73697a653d223237222066696c6c3d2223666666222066696c7465723d2275726c282362292220666f6e742d66616d696c793d22506c7573204a616b617274612053616e732c44656a6156752053616e732c4e6f746f20436f6c6f7220456d6f6a692c4170706c6520436f6c6f7220456d6f6a692c73616e732d73657269662220666f6e742d7765696768743d22626f6c64223e",
  "linkReferences": {},
  "deployedLinkReferences": {}
}